S0110000696E746572727570742E7372656326
S11300000C942A000C944B000C9434000C9434008F
S11300100C9434000C9434000C9434000C9434008C
S11300200C9434000C9434000C9434000C9434007C
S11300300C9434000C9434000C9434000C9434006C
S11300400C9434000C9434000C9434000C9434005C
S11300500C94340011241FBECFE5D8E0DEBFCDBF21
S11300600E9436000C945D000C94000087B38B60F2
S113007087BB88E084BB84E082BB82E085BF80E4E8
S11300808BBF789481E088BB84E68CBF8AE783BF0A
S11300908AE08CBFFDCF1F920F920FB60F921124EE
S11300A08F939F9395B388E0892785BB9F918F9108
S11100B00F900FBE0F901F901895F894FFCF7D
S9030000FC
