:020000020000FC
:1000000037C0AB2FB07F05D0BA2FB295B07F01D0EB
:10001000089524D0B16022D0B46020D0BB7F1ED020
:100020000895AB2FB07F05D0BA2FB295B07F01D025
:10003000089514D0BE7F12D0B46010D0BB7F0ED014
:10004000089550E051B957E450B954E056BF0895AF
:1000500054EA56BF56B757FFFDCF0895B3B954E8D9
:1000600056BF56B757FFFDCF089554E956BF0895C0
:10007000E8DFEEDFB0EDF2DFB2E0D3DFB8E2D1DFF0
:10008000BFE8CFDFBCE0CDDFB6E0CBDFF2E0E0E001
:10009000B491B03031F0B5DFB8E1C3DFE39505D0FE
:1000A000F7CF03D0B1E0BDDFE3CF44E12EE134E68A
:0E00B0003A95F1F72A95D9F74A95C1F70895C8
:10020000454152544820495320425554204F4E45B1
:0C02100020434F554E54525900000895F1
:00000001FF
