:020000020000FC
:100000000E9425000E942C0050ED0E94320057E013
:100010000E94320050E00E9432000E9439000E948B
:100020003F000E942C0050ED0E94320050E00E94E0
:10003000320055E50E94320058E50E94320056E138
:100040000E9432000E943900FFCF50E051B957E4BE
:1000500050B954E056BF089554EA56BF56B757FFFB
:10006000FDCF089553B954E856BF56B757FFFDCF9B
:10007000089554E956BF56B754FFFDCF08956FEF6A
:080080006A950000E9F70895FC
:00000001FF
