:100000000C942A000C9434000C9434000C943400AA
:100010000C9434000C9434000C9434000C94340090
:100020000C9434000C9434000C9434000C94340080
:100030000C9434000C9434000C9434000C94340070
:100040000C9434000C9434000C9434000C94340060
:100050000C94340011241FBECFE5D8E0DEBFCDBF25
:100060000E9436000C9447000C94000081B3876016
:1000700081BB82B3856082BB8BE792E90197F1F780
:1000800000C0000082B38A7F816082BBF2CFF89407
:02009000FFCFA0
:00000001FF
