:100000000C942A000C9447000C9447000C94470071
:100010000C9447000C9447000C9447000C94470044
:100020000C9447000C9447000C9447000C94470034
:100030000C9447000C9447000C9447000C94470024
:100040000C9447000C9447000C9447000C94470014
:100050000C94470011241FBECFE5D8E0DEBFCDBF12
:1000600010E0A0E6B0E0E8E6F1E002C005900D92F5
:10007000A836B107D9F710E0A8E6B0E001C01D929C
:10008000A836B107E1F70E9462000C94B2000C940C
:10009000000094989598969A969883EC99E0019729
:1000A000F1F700C000000895949A9598969A969852
:1000B0008FE39DE0A3E081509040A040E1F700C0B5
:1000C00000000895EF92FF920F931F93CF93DF9359
:1000D000CDB7DEB728970FB6F894DEBF0FBECDBF01
:1000E000DE011196E0E6F0E088E001900D9281508B
:1000F000E1F78FEF87BB81BB88E388BB0E94490093
:1001000081E088BB0E9449008CE088BB0E944900C6
:1001100086E088BB0E94490080E888BB0E944900B5
:100120008E010F5F1F4F0F2EF9E0EF2EFF24F02DF1
:10013000EC0EFD1EF80181918F0188BB0E945400D6
:100140000E151F05B9F780E090E028960FB6F894D9
:10015000DEBF0FBECDBFDF91CF911F910F91FF90FA
:08016000EF900895F894FFCF21
:08016800736872696B616E742B
:00000001FF
