:100A12004541525448204953205448452042555498
:0D0A2200204F4E4520434F554E5452590071
:030A410001260A81
:100A2F00C2B0C2B1D2B2C2B2AF26EF3395E0FE026E
:020A3F0009F2BA
:1009820078087C007D007BFF7A0A79127E007F1D49
:100992001208D0120A2F759038120A2F7590011280
:1009A2000A2F75900C120A2F759006120A2F759055
:1009B20080120A2F745AE4F525AF25D3EF941C74E4
:1009C200809480502AEF641070077590C0C2B08086
:1009D2000A74082525F8E6F590D2B0C2B1D2B2C2A7
:0F09E200B2AF26EF3395E0FE1209F2052580CA69
:0109F10022E3
:1009F200E4FDFCC3ED9FEC9E5015E4FBFA0BBB003B
:0F0A0200010ABA04F8BBFBF50DBD00010C80E43E
:010A110022C2
:030000000208F6FD
:0C08F600787FE4F6D8FD75812602093DEC
:10080000E709F608DFFA8046E709F208DFFA803EDA
:1008100088828C83E709F0A3DFFA8032E309F608C7
:10082000DFFA8078E309F208DFFA807088828C832F
:10083000E309F0A3DFFA806489828A83E0A3F608E3
:10084000DFFA805889828A83E0A3F208DFFA804CBD
:1008500080D280FA80C680D4806980F28033801094
:1008600080A680EA809A80A880DA80E280CA8033FD
:1008700089828A83ECFAE493A3C8C582C8CCC58375
:10088000CCF0A3C8C582C8CCC583CCDFE9DEE78045
:100890000D89828A83E493A3F608DFF9ECFAA9F0C4
:1008A000EDFB2289828A83ECFAE0A3C8C582C8CC1A
:1008B000C583CCF0A3C8C582C8CCC583CCDFEADE33
:1008C000E880DB89828A83E493A3F208DFF980CC95
:1008D00088F0EF60010E4E60C388F0ED2402B4048E
:1008E0000050B9F582EB2402B4040050AF23234535
:0608F00082239008507302
:10090200020982E493A3F8E493A34003F68001F280
:1009120008DFF48029E493A3F85407240CC8C333F6
:10092200C4540F4420C8834004F456800146F6DFC5
:10093200E4800B0102040810204080900A41E47E0A
:10094200019360BCA3FF543F30E509541FFEE493BA
:10095200A360010ECF54C025E060A840B8E493A381
:10096200FAE493A3F8E493A3C8C582C8CAC583CAAC
:10097200F0A3C8C582C8CAC583CADFE9DEE780BE64
:010A440000B1
:00000001FF
