:100000000C942A000C9447000C9447000C94470071
:100010000C9447000C9447000C9447000C94D101B9
:100020000C9447000C9447000C9447000C94470034
:100030000C9447000C9471080C9447000C944700F2
:100040000C9447000C9447000C9447000C94470014
:100050000C94470011241FBECFE5D8E0DEBFCDBF12
:1000600010E0A0E6B0E0E6E0F7E102C005900D92F6
:10007000A83CB107D9F727E0A8ECB0E001C01D9279
:10008000A332B207E1F70E94C3070C94810B0C94D2
:100090000000FC010396928381832FEF3FEF3483AE
:1000A0002383968385839087878310820895FC013C
:1000B000118610860895CF93DF939C01FB01DC012C
:1000C0001196CD91DC911297D383C2838C819D814F
:1000D000958384838C819D81DC0113967C936E9340
:1000E00012977D836C8331872087F90180818F5F30
:1000F0008083DF91CF910895CF93DF93EB01488107
:1001000059814F3F2FEF520721F4FC01A781B085A1
:100110000DC0DC01139601C0DF011296ED91FC9138
:1001200013972081318142175307B0F71296ED9152
:10013000FC911397FB83EA83D583C483BD83AC838F
:100140001396DC93CE93129799878887FC012081C0
:100150002F5F2083DF91CF910895CF93DF93FC0130
:10016000A085B185C281D381848195819D838C8353
:10017000C481D581828193819B838A8311968D91DD
:100180009C911297E817F90731F4848195811296B2
:100190009C938E931197118610868C9181508C932D
:1001A0008C91DF91CF9108951BBC8CE78ABD8BE0C9
:1001B0008EBD89B7806189BF089531E1FC0130832C
:1001C000319722E220833197A3E3A08331976083A4
:1001D0003197708331971082319760E8608331974F
:1001E0001082319762E06083319763E060833197DA
:1001F00064E06083319765E06083319766E06083F7
:10020000319767E06083319768E06083319769E0F8
:100210006083319760E1608331973083319732E1B9
:100220003083319733E13083319734E13083319734
:1002300035E13083319736E13083319737E13083D0
:10024000319738E13083319739E13083319730E2AB
:100250003083319731E2308331972083319723E225
:1002600020833197408331975083319726E2208352
:10027000319727E22083319728E22083319729E2C2
:100280002083319720E32083319721E320838697D1
:1002900008950E94D400A0911907B0911A07CD913A
:1002A000CDBFDD91DEBFFF91EF91DF91CF91BF9187
:1002B000AF919F918F917F916F915F914F913F91FE
:1002C0002F911F910F91FF90EF90DF90CF90BF90F3
:1002D000AF909F908F907F906F905F904F903F90E6
:1002E0002F901F900F900FBE0F90089581E00895FA
:1002F0000F920FB6F8940F921F9211242F923F92F3
:100300004F925F926F927F928F929F92AF92BF9225
:10031000CF92DF92EF92FF920F931F932F933F9311
:100320004F935F936F937F938F939F93AF93BF93FD
:10033000CF93DF93EF93FF93A0911907B0911A0722
:100340000DB60D920EB60D920E941207A0911907DC
:10035000B0911A07CD91CDBFDD91DEBFFF91EF9136
:10036000DF91CF91BF91AF919F918F917F916F91CD
:100370005F914F913F912F911F910F91FF90EF90BF
:10038000DF90CF90BF90AF909F908F907F906F90B5
:100390005F904F903F902F901F900F900FBE0F9047
:1003A00008951F920F920FB60F9211242F933F932F
:1003B0004F935F936F937F938F939F93AF93BF936D
:1003C000EF93FF930E940006FF91EF91BF91AF91D1
:1003D0009F918F917F916F915F914F913F912F915D
:1003E0000F900FBE0F901F901895E4EDF0E0A8ED70
:1003F000B0E0B183A08313821282E0EBF6E0F093C9
:10040000D300E093D200138212821182108288ED11
:1004100095E013969C938E931297ED93FC93909393
:10042000CF008093CE009093D1008093D00080E0E5
:1004300090E89093C9008093C8000895CF93DF930C
:10044000EC01A4EDB0E001C0DF01ED91FC9111974A
:10045000EC17FD07C8F312968D919C9113979D019F
:10046000280F391FC217D30749F42A813B81820F15
:10047000931F13969C938E931297ED018A819B8113
:100480009E01280F391FE217F307C1F42091D20013
:100490003091D300E217F30771F022813381820F8C
:1004A000931F9B838A83ED91FC91119780819181A9
:1004B0009983888305C03983288302C0F983E88340
:1004C000CA17DB0711F0CD93DC93DF91CF9108952C
:1004D000EF92FF920F931F93CF93DF938C010E94B3
:1004E000FA058091D2009091D300892B11F40E94DB
:1004F000F5018091C8009091C90080239123892B38
:1005000009F077C00115110549F0C80104960817D4
:10051000190718F000E010E001C08C010115110569
:1005200009F46AC08091D0009091D10080179107A2
:1005300008F465C0C091D400D091D500E4EDF0E09E
:1005400002C0FE01EC018A819B818017910720F493
:10055000888199810097A9F78091D2009091D3006A
:10056000C817D90709F44EC0E080F18084E0E80E96
:10057000F11C88819981918380832A813B81201B92
:10058000310B2930310550F0CE01800F911FFC0155
:10059000338322831B830A830E941E022A813B81AC
:1005A0008091D0009091D100821B930B9093D10049
:1005B0008093D0004091CE005091CF0084179507D2
:1005C00020F49093CF008093CE008091C80090914A
:1005D000C900282B392B3B832A83198218828091EA
:1005E000CC009091CD0001969093CD008093CC00EB
:1005F0000BC0E12CF12C08C0E12CF12C05C0E12C42
:10060000F12C02C0E12CF12C0E948E06C701DF9173
:10061000CF911F910F91FF90EF9008950F931F932B
:10062000CF93DF93009799F1EC0124974A815B8186
:100630002091C8003091C900BA0162237323672B4F
:1006400031F168817981672B11F52095309524234C
:1006500035233B832A830E94FA058A819B8120915E
:10066000D0003091D100820F931F9093D1008093DE
:10067000D000CE010E941E028091CA009091CB0052
:1006800001969093CB008093CA000E948E06DF9162
:10069000CF911F910F910895E091E106F091E2064C
:1006A0008081811107C08FEF9FEF9093B8068093F0
:1006B000B7060895E091E106F091E2060580F68123
:1006C000E02D808191819093B8068093B7060895BC
:1006D000CF93DF93EC018F89988D0E940E03CE019A
:1006E0000E940E03DF91CF9108956F927F928F92B7
:1006F0009F92AF92BF92CF92DF92EF920F931F9390
:10070000CF93DF93CDB7DEB74C01D50157968D91CE
:100710009C915897215031093C01620E731E61155E
:10072000710589F416C0822F90E0FB01E80FF91FD4
:100730003081D501A80FB91F59963C938081882339
:1007400029F02F5F01C020E02F3068F3F50117A2D8
:1007500003C0D50159961C92B3E0BE1520F40F2EAC
:10076000F3E0EF2EF02DF501E68AC50102960E9416
:100770005700C5010C960E945700D5011996BC92EE
:10078000AE92189784E090E08E1991091D969C9383
:100790008E931C975396BC92AE92529784E0F501CB
:1007A000B896DF011D928A95E9F7F50114A6A80114
:1007B000B401C3010E94DD00D5018D939C93C11447
:1007C000D10419F0F601B182A082DF91CF911F917F
:1007D0000F91EF90DF90CF90BF90AF909F908F9050
:1007E0007F906F900895CF93C0E010C08C2F90E061
:1007F0009C01220F331F220F331F220F331F820F42
:10080000931F8B50994F0E944900CF5FC43070F303
:100810008CEE96E00E94490083EE96E00E9449002B
:1008200086ED96E00E9449008DEC96E00E9449001A
:1008300083EC96E00E9449008CEE96E09093E206ED
:100840008093E10683EE96E09093E0068093DF06C6
:10085000CF910895CF93DF93EC010FB6F8940F92E8
:100860008091C2068F5F8093C20680911907909194
:100870001A07892B59F4D0931A07C093190780914E
:10088000C206813099F40E94F30310C08091BE0625
:1008900081110CC0E0911907F0911A0796898E8991
:1008A000891720F0D0931A07C09319078091B906D1
:1008B0008F5F8093B9062E898091BF06821710F44E
:1008C0002093BF0630E0BE016E5F7F4FC901880FE5
:1008D000991F880F991F880F991F820F931F8B50A4
:1008E000994F0E945B000F900FBE8091BE06882337
:1008F00021F08091190790911A07DF91CF91089507
:10090000CF93DF931CC00FB6F8940F92E091D206FC
:10091000F091D306C681D781CE0102960E94AD0028
:100920008091C20681508093C2068091CC0681508E
:100930008093CC060F900FBECE010E946803809179
:10094000CC068111E0CFDF91CF910895FF920F93F4
:100950001F93CF93DF93EC01F62E0091C006109108
:10096000C1068091190790911A0702960E94AD0066
:10097000CF3F8FEFD80769F4FF2059F06091190736
:1009800070911A076E5F7F4F83EC96E00E945B00C8
:100990002FC0C00FD11FE0911907F0911A07D38320
:1009A000C283C017D10768F46091190770911A07C4
:1009B0008091DF069091E0066E5F7F4F0E947C0081
:1009C00017C06091190770911A078091E106909104
:1009D000E2066E5F7F4F0E947C008091B706909187
:1009E000B806C817D90720F4D093B806C093B70645
:1009F000DF91CF911F910F91FF9008950E94800485
:100A00000E9478010E94A807F9CF2F923F924F923F
:100A10005F926F927F928F929F92AF92BF92CF928E
:100A2000DF92EF92FF920F931F93CF93DF933C01DE
:100A30001B015A012901CA010E9468026C01892B1D
:100A400071F08DE290E00E946802EC01892B19F0B0
:100A5000D88ECF8A06C0C6010E940E0302C0C0E035
:100A6000D0E0209791F0950140E050E0812C912C4E
:100A70005E016701E02E8201B101C3010E9475038E
:100A8000CE010E942A0481E001C08FEFDF91CF9157
:100A90001F910F91FF90EF90DF90CF90BF90AF909C
:100AA0009F908F907F906F905F904F903F902F908E
:100AB00008950FB6F8940F92009729F4E091190762
:100AC000F0911A0701C0FC0186890F900FBE0895AE
:100AD0000F931F93CF93DF93EC01643008F063E032
:100AE0000FB6F8940F92209721F4C0911907D09176
:100AF0001A078E89681709F44AC0861760F4209196
:100B0000190730911A07C217D30749F02091190726
:100B100030911A0704C02091190730911A076E8B83
:100B20002C853D85332334F024E030E0261B310949
:100B30003D872C872A853B8590E0AC01440F551FEB
:100B4000440F551F440F551F840F951F8B50994F0D
:100B500028173907E1F48E010E5F1F4FC8010E946C
:100B6000AD008E899091BF06981710F48093BF0650
:100B700090E09C01220F331F220F331F220F331FDF
:100B8000820F931FB8018B50994F0E945B000F900A
:100B90000FBEDF91CF911F910F910895EF92FF92B9
:100BA0000F930F2EF5EBEF2EF6E0FF2EF02D00E069
:100BB00020E030E045E550E061E670E08EEF94E043
:100BC0000E940505813081F4F8948FEF9FEF909398
:100BD000B8068093B70681E08093BE061092C106E6
:100BE0001092C0060E944901809160000F91FF9011
:100BF000EF9008958091B4068F5F8093B4060895B6
:100C0000EF92FF920F931F93CF93DF938091B406DF
:100C1000811173C0E090C006F090C1068FEFE81A12
:100C2000F80AF092C106E092C006E114F104B9F4AA
:100C30008091E1069091E2062091DF063091E00676
:100C40003093E2062093E1069093E0068093DF065E
:100C50008091BA068F5F8093BA060E944C03809100
:100C6000B7069091B806E816F90608F44FC0E0916F
:100C7000E106F091E2068081811107C08FEF9FEFBE
:100C80009093B8068093B70641C0E091E106F091D9
:100C9000E2060580F681E02DC681D7818A819B819D
:100CA000E816F90628F49093B8068093B7062EC08C
:100CB0008E010E5F1F4FC8010E94AD008C899D8977
:100CC000892B21F0CE010C960E94AD008E89909167
:100CD000BF06981710F48093BF0690E09C01220F86
:100CE000331F220F331F220F331F820F931FB801B0
:100CF0008B50994F0E945B00BACF8091BC069091B7
:100D0000BD0601969093BD068093BC0680E0DF91FE
:100D1000CF911F910F91FF90EF9008950F931F9324
:100D2000CF93DF930FB6F8940F928091B406815061
:100D30008093B4068091B406811156C08091C2069A
:100D4000811133C051C0E091DB06F091DC06C68111
:100D5000D781CE010C960E94AD008E010E5F1F4F11
:100D6000C8010E94AD008E899091BF06981710F4BB
:100D70008093BF0690E09C01220F331F220F331F88
:100D8000220F331F820F931FB8018B50994F0E947F
:100D90005B009E89E0911907F0911A0786899817E0
:100DA00030F081E08093BB0602C0C0E0D0E08091CB
:100DB000D6068111C8CFCD2B11F00E944C03C091F3
:100DC000BC06D091BD06209769F00E9400068823DA
:100DD00019F081E08093BB062197B9F71092BD0608
:100DE0001092BC068091BB060F900FBE80E0DF9191
:100DF000CF911F910F910895CF93DF93EC01892B31
:100E000049F00E94FA0560E0CE010E94A6040E940B
:100E10008E0601C080E0811102C00E947801DF913E
:100E2000CF9108958091B406882321F081E08093CA
:100E3000BB0608951092BB062091BF0601C0215049
:100E4000822F90E0FC01EE0FFF1FEE0FFF1FEE0F51
:100E5000FF1FE80FF91FEB50F94F3081332379F36F
:100E6000AC01440F551F440F551F440F551F480F29
:100E7000591FDF010180F281E02D0280F381E02D16
:100E80001296FC93EE9311974850594FE417F507CB
:100E900029F442815381FD0152834183FC01EE0F0D
:100EA000FF1FEE0FFF1FEE0FFF1F8E0F9F1FFC0196
:100EB000EB50F94F0180F281E02D8681978190936C
:100EC0001A07809319072093BF06089588B38E7F71
:100ED00088BB88B38D7F88BB88B3846088BB88B3A8
:100EE0008B7F88BB8FE39CE90197F1F700C000007E
:100EF00008958FEF87BB8ABB88E38BBB0E94660790
:100F000081E08BBB0E9466078CE08BBB0E9466076A
:100F100086E08BBB0E9466078FE88BBB0E9466074A
:100F200087E08BBB0E946607089588B3816088BB09
:100F300088B38D7F88BB88B3846088BB88B38B7F80
:100F400088BB8FE39CE90197F1F700C0000008958A
:100F500080911B0790911C07A0911D07B0911E075F
:100F60000196A11DB11D80931B0790931C07A093B0
:100F70001D07B0931E07089588E98AB986E880BDE9
:100F800083E389B90895EF92FF920F930E94BC0703
:100F90000E9479070F2EFFE1EF2EF7E0FF2EF02DD4
:100FA00001E020E030E044E650E066E670E088E6EC
:100FB00098E00E9405050F2EF1E2EF2EF7E0FF2EDC
:100FC000F02D20E030E044E650E06CE670E08DEF7C
:100FD00097E00E9405050E94CE0580E090E00F9109
:100FE000FF90EF900895FC0104C05D9BFECF8CB98B
:100FF000319680818111F9CF0895CF93DF93CDB7DA
:10100000DEB76E970FB6F894DEBF0FBECDBF8091EE
:101010001B0790911C07A0911D07B0911E070B970D
:10102000A105B10588F180E090E00E945905182FD4
:1010300062E0680F80912107909122070E94680565
:101040001F921F9382E790E09F938F938E010F5F13
:101050001F4F1F930F930E949708C8010E94F30728
:1010600089E890E09F938F9382E990E09F938F931C
:101070001F930F930E949708C8010E94F3070FB6B1
:10108000F894DEBF0FBECDBF80911B0790911C0767
:10109000A0911D07B0911E07BF93AF939F938F93AD
:1010A00086E990E09F938F938E010F5F1F4F1F93F0
:1010B0000F930E949708C8010E94F30788EE93E0FF
:1010C0000E94FC060FB6F894DEBF0FBECDBF9FCFC7
:1010D0008BEA90E00E94F30788EE93E00E94FC0602
:1010E000F7CF1F920F920FB60F9211242F933F93B9
:1010F0004F935F936F937F938F939F93AF93BF9320
:10110000EF93FF938CB18BBB0E949507FF91EF91FA
:10111000BF91AF919F918F917F916F915F914F910F
:101120003F912F910F900FBE0F901F901895AEE03A
:10113000B0E0EDE9F8E00C94580B0D891E8986E0CB
:101140008C831A8309838FEF9FE79E838D83AE0183
:10115000475E5F4F6F89788DCE0101960E94B90876
:10116000EF81F885E00FF11F10822E96E4E00C94D9
:10117000740BABE0B0E0EFEBF8E00C944A0B6C01C1
:101180007B018A01FC0117821682838181FFCCC119
:10119000CE0101963C01F6019381F70193FD859103
:1011A00093FF81917F01882309F4BAC1853239F414
:1011B00093FD859193FF81917F01853229F4B601DA
:1011C00090E00E94B00AE7CF912C212C312CFFE156
:1011D000F315D8F08B3279F038F4803279F083321D
:1011E000A1F4232D20611DC08D3261F0803369F49C
:1011F000232D216016C0832D8260382EE32DE460FC
:101200003E2E2AC0F32DF8601DC037FC2DC020ED06
:10121000280F2A3040F08E32B9F436FC81C1232DDC
:101220002064322E19C036FE06C08AE0989E200D3A
:101230001124922E11C0EAE02E9E200D1124222EA0
:10124000F32DF0623F2E08C08C3621F4832D806888
:10125000382E02C0883641F4F70193FD859193FF43
:1012600081917F018111B3CF982F9F7D9554933049
:1012700028F40C5F1F4F9FE399830DC0833631F034
:10128000833771F0833509F059C021C0F80180819E
:1012900089830E5F1F4F88248394912C530113C0C0
:1012A0002801F2E04F0E511CF801A080B18036FEFB
:1012B00003C0692D70E002C06FEF7FEFC5010E948F
:1012C000A50A4C018201F32DFF773F2E16C028019D
:1012D00022E0420E511CF801A080B18036FE03C00E
:1012E000692D70E002C06FEF7FEFC5010E949A0A7E
:1012F0004C01F32DF0683F2E820133FC1BC0822D80
:1013000090E088169906B0F4B60180E290E00E9461
:10131000B00A2A94F4CFF50137FC859137FE81910C
:101320005F01B60190E00E94B00A21102A9421E0EA
:10133000821A91088114910471F7E8C0843611F083
:10134000893641F5F80137FE07C0608171818281DD
:1013500093810C5F1F4F08C060817181072E000CC4
:10136000880B990B0E5F1F4FF32DFF763F2E97FFD3
:1013700009C090958095709561957F4F8F4F9F4FD5
:10138000F0683F2E2AE030E0A3010E94EC0A882E8C
:10139000861845C0853731F4232D2F7EB22E2AE0E2
:1013A00030E025C0932D997FB92E8F36C1F018F407
:1013B000883579F0B5C0803719F0883721F0B0C092
:1013C000E92FE061BE2EB4FE0DC0FB2DF460BF2EF0
:1013D00009C034FE0AC0292F2660B22E06C028E0BC
:1013E00030E005C020E130E002C020E132E0F80149
:1013F000B7FE07C060817181828193810C5F1F4FAE
:1014000006C06081718180E090E00E5F1F4FA301F4
:101410000E94EC0A882E8618FB2DFF773F2E36FEA1
:101420000DC0232D2E7FA22E891458F434FE0BC03C
:1014300032FC09C0832D8E7EA82E05C0B82CA32CAB
:1014400003C0B82C01C0B92CA4FE0FC0FE01E80DEA
:10145000F11D8081803321F49A2D997EA92E09C037
:10146000A2FE06C0B394B39404C08A2D867809F016
:10147000B394A3FC11C0A0FE06C0B21488F4280CDB
:10148000922C9B180EC0B21460F4B60180E290E07A
:101490000E94B00AB394F7CFB21418F42B1802C00C
:1014A000982C212CA4FE10C0B60180E390E00E948D
:1014B000B00AA2FE17C0A1FC03C088E790E002C0FA
:1014C00088E590E0B6010CC08A2D867859F0A1FE1F
:1014D00002C08BE201C080E2A7FC8DE2B60190E081
:1014E0000E94B00A891438F4B60180E390E00E94AB
:1014F000B00A9A94F7CF8A94F301E80DF11D808128
:10150000B60190E00E94B00A8110F5CF222009F4C4
:1015100042CEB60180E290E00E94B00A2A94F6CF53
:10152000F6018681978102C08FEF9FEF2B96E2E153
:101530000C94660BFC010590615070400110D8F7C7
:10154000809590958E0F9F1F0895FC01615070400B
:1015500001900110D8F7809590958E0F9F1F0895E8
:101560000F931F93CF93DF93FB01238121FD03C0D2
:101570008FEF9FEF2CC022FF16C046815781248138
:1015800035814217530744F4A081B1819D012F5F3B
:101590003F4F318320838C93268137812F5F3F4FCC
:1015A0003783268314C08B01EC01FB010084F18595
:1015B000E02D0995892BE1F6D80116968D919C9125
:1015C0001797019617969C938E931697CE01DF91ED
:1015D000CF911F910F910895FA01AA27283051F158
:1015E000203181F1E8946F936E7F6E5F7F4F8F4F54
:1015F0009F4FAF4FB1E03ED0B4E03CD0670F781FB3
:10160000891F9A1FA11D680F791F8A1F911DA11D97
:101610006A0F711D811D911DA11D20D009F46894D0
:101620003F912AE0269F11243019305D3193DEF678
:10163000CF010895462F4770405D4193B3E00FD02E
:10164000C9F7F6CF462F4F70405D4A3318F0495D19
:1016500031FD4052419302D0A9F7EACFB4E0A695FC
:101660009795879577956795BA95C9F7009761051E
:10167000710508959B01AC010A2E06945795479574
:1016800037952795BA95C9F7620F731F841F951F69
:10169000A01D08952F923F924F925F926F927F927A
:1016A0008F929F92AF92BF92CF92DF92EF92FF9272
:1016B0000F931F93CF93DF93CDB7DEB7CA1BDB0B1E
:1016C0000FB6F894DEBF0FBECDBF09942A883988C3
:1016D00048885F846E847D848C849B84AA84B984CA
:1016E000C884DF80EE80FD800C811B81AA81B981D6
:1016F000CE0FD11D0FB6F894DEBF0FBECDBFED01EA
:061700000895F894FFCFEC
:101706000349444C45005461736B32007461736B3A
:1017160031005461736B205072696F72697479205D
:101726002D2D2D3E2025640D0030303A33353A35C7
:10173600320025730D005469636B20636F756E74F8
:10174600202D2D2D3E20256C750D00636F6E74695E
:101756006E6F7573205461736B32206973207275D6
:081766006E6E696E670D0A004A
:00000001FF
