S00D000074696D65722E73726563F6
S11300000C942A000C9434000C9434000C943400A6
S11300100C9434000C9434000C9434000C9434008C
S11300200C9434000C9434000C9434000C9434007C
S11300300C9434000C9434000C9434000C9434006C
S11300400C9434000C9434000C9434000C9434005C
S11300500C94340011241FBECFE5D8E0DEBFCDBF21
S11300600E9441000C944A000C94000012BE82E0ED
S113007083BF03C013BE81E088BF08B600FCFACF7B
S113008008958FEF87BB0E94360098B381E08927DB
S10B009088BBF9CFF894FFCFFF
S9030000FC
