:100000000C942A000C9447000C9447000C94470071
:100010000C9447000C9447000C9447000C94D101B9
:100020000C9447000C9447000C9447000C94470034
:100030000C9447000C94380A0C9447000C94470029
:100040000C9447000C9447000C9447000C94470014
:100050000C94470011241FBECFE5D8E0DEBFCDBF12
:1000600010E0A0E6B0E0ECE4F5E102C005900D92EE
:10007000A63BB107D9F727E0A6EBB0E001C01D927F
:10008000AD30B207E1F70E945F0A0C94A40A0C9409
:100090000000FC010396928381832FEF3FEF3483AE
:1000A0002383968385839087878310820895FC013C
:1000B000118610860895CF93DF939C01FB01DC012C
:1000C0001196CD91DC911297D383C2838C819D814F
:1000D000958384838C819D81DC0113967C936E9340
:1000E00012977D836C8331872087F90180818F5F30
:1000F0008083DF91CF910895CF93DF93EB01488107
:1001000059814F3F2FEF520721F4FC01A781B085A1
:100110000DC0DC01139601C0DF011296ED91FC9138
:1001200013972081318142175307B0F71296ED9152
:10013000FC911397FB83EA83D583C483BD83AC838F
:100140001396DC93CE93129799878887FC012081C0
:100150002F5F2083DF91CF910895CF93DF93FC0130
:10016000A085B185C281D381848195819D838C8353
:10017000C481D581828193819B838A8311968D91DD
:100180009C911297E817F90731F4848195811296B2
:100190009C938E931197118610868C9181508C932D
:1001A0008C91DF91CF9108951BBC8CE78ABD8BE0C9
:1001B0008EBD89B7806189BF089531E1FC0130832C
:1001C000319722E220833197A3E3A08331976083A4
:1001D0003197708331971082319760E8608331974F
:1001E0001082319762E06083319763E060833197DA
:1001F00064E06083319765E06083319766E06083F7
:10020000319767E06083319768E06083319769E0F8
:100210006083319760E1608331973083319732E1B9
:100220003083319733E13083319734E13083319734
:1002300035E13083319736E13083319737E13083D0
:10024000319738E13083319739E13083319730E2AB
:100250003083319731E2308331972083319723E225
:1002600020833197408331975083319726E2208352
:10027000319727E22083319728E22083319729E2C2
:100280002083319720E32083319721E320838697D1
:1002900008950E94D400A0910707B0910807CD915E
:1002A000CDBFDD91DEBFFF91EF91DF91CF91BF9187
:1002B000AF919F918F917F916F915F914F913F91FE
:1002C0002F911F910F91FF90EF90DF90CF90BF90F3
:1002D000AF909F908F907F906F905F904F903F90E6
:1002E0002F901F900F900FBE0F90089581E00895FA
:1002F0000F920FB6F8940F921F9211242F923F92F3
:100300004F925F926F927F928F929F92AF92BF9225
:10031000CF92DF92EF92FF920F931F932F933F9311
:100320004F935F936F937F938F939F93AF93BF93FD
:10033000CF93DF93EF93FF93A0910707B091080746
:100340000DB60D920EB60D920E94DF08A091070720
:10035000B0910807CD91CDBFDD91DEBFFF91EF9148
:10036000DF91CF91BF91AF919F918F917F916F91CD
:100370005F914F913F912F911F910F91FF90EF90BF
:10038000DF90CF90BF90AF909F908F907F906F90B5
:100390005F904F903F902F901F900F900FBE0F9047
:1003A00008951F920F920FB60F9211242F933F932F
:1003B0004F935F936F937F938F939F93AF93BF936D
:1003C000EF93FF930E94CD07FF91EF91BF91AF9103
:1003D0009F918F917F916F915F914F913F912F915D
:1003E0000F900FBE0F901F901895E2ECF0E0A6EC76
:1003F000B0E0B183A08313821282EEE9F6E0F093BD
:10040000C100E093C000138212821182108288ED35
:1004100095E013969C938E931297ED93FC93909393
:10042000BD008093BC009093BF008093BE0080E02D
:1004300090E89093B7008093B6000895CF93DF9330
:10044000EC01A2ECB0E001C0DF01ED91FC9111974D
:10045000EC17FD07C8F312968D919C9113979D019F
:10046000280F391FC217D30749F42A813B81820F15
:10047000931F13969C938E931297ED018A819B8113
:100480009E01280F391FE217F307C1F42091C00025
:100490003091C100E217F30771F022813381820F9E
:1004A000931F9B838A83ED91FC91119780819181A9
:1004B0009983888305C03983288302C0F983E88340
:1004C000CA17DB0711F0CD93DC93DF91CF9108952C
:1004D000EF92FF920F931F93CF93DF938C010E94B3
:1004E000C7078091C0009091C100892B11F40E9430
:1004F000F5018091B6009091B70080239123892B5C
:1005000009F077C00115110549F0C80104960817D4
:10051000190718F000E010E001C08C010115110569
:1005200009F46AC08091BE009091BF0080179107C6
:1005300008F465C0C091C200D091C300E2ECF0E0C5
:1005400002C0FE01EC018A819B818017910720F493
:10055000888199810097A9F78091C0009091C1008E
:10056000C817D90709F44EC0E080F18084E0E80E96
:10057000F11C88819981918380832A813B81201B92
:10058000310B2930310550F0CE01800F911FFC0155
:10059000338322831B830A830E941E022A813B81AC
:1005A0008091BE009091BF00821B930B9093BF007F
:1005B0008093BE004091BC005091BD008417950708
:1005C00020F49093BD008093BC008091B600909180
:1005D000B700282B392B3B832A83198218828091FC
:1005E000BA009091BB0001969093BB008093BA0033
:1005F0000BC0E12CF12C08C0E12CF12C05C0E12C42
:10060000F12C02C0E12CF12C0E945B08C701DF91A4
:10061000CF911F910F91FF90EF9008950F931F932B
:10062000CF93DF93009799F1EC0124974A815B8186
:100630002091B6003091B700BA0162237323672B73
:1006400031F168817981672B11F52095309524234C
:1006500035233B832A830E94C7078A819B8120918F
:10066000BE003091BF00820F931F9093BF00809314
:10067000BE00CE010E941E028091B8009091B90088
:1006800001969093B9008093B8000E945B08DF91B7
:10069000CF911F910F9108950FB6F8940F92FC011E
:1006A000828D811102C081E001C080E00F900FBEF9
:1006B00008950FB6F8940F92FC01228D838D2813B4
:1006C00002C081E001C080E00F900FBE08950F933B
:1006D0001F93CF93DF93EC01042F1A8D4C8D44238D
:1006E000B9F1011116C050E08A819B810E949B0ADA
:1006F0002C8D8A819B81820F911D9B838A832C8103
:100700003D818217930720F1888199819B838A8399
:100710001FC050E08E819F810E949B0A8C8D90E0CB
:100720009195819591092E813F81280F391F3F8333
:100730002E83488159812417350730F42C813D815F
:10074000820F931F9F838E83023011F41111115079
:100750001F5F1A8F80E0DF91CF911F910F91089555
:10076000FC01448D4423A9F050E026813781240FF9
:10077000351F37832683848195812817390720F018
:100780008081918197838683CB01668177810E94E6
:100790009B0A08951F93CF93DF93EC010FB6F89453
:1007A0000F921E8D0BC08989882351F0CE0141968E
:1007B0000E94450981110E94D709115011169CF31E
:1007C0008FEF8E8F0F900FBE0FB6F8940F921D8D86
:1007D0000BC08885882351F0CE0108960E944509F8
:1007E00081110E94D709115011169CF38FEF8D8F44
:1007F0000F900FBEDF91CF911F910895CF93DF939C
:10080000EC010FB6F8940F92E881F9818B8D2C8D55
:1008100090E030E0829FA001839F500D929F500D89
:1008200011244E0F5F1F5D834C831A8EFB83EA8376
:100830000197289FA001299F500D389F500D11242A
:10084000CF01840F951F9F838E838FEF8D8F8E8FA7
:10085000611108C08885882369F0CE0108960E943E
:10086000450908C0CE0108960E944900CE01419674
:100870000E9449000F900FBE81E0DF91CF91089553
:100880000F931F93F801611103C01183008302C00D
:1008900051834083838F648F61E0CF010E94FE0308
:1008A0001F910F910895DF92EF92FF920F931F9384
:1008B000CF93DF93F82EE62ED42E869FC00111240D
:1008C0004F960E946802EC01009749F08C012D2D93
:1008D000AC01415E5F4F6E2D8F2D0E944004CE0112
:1008E000DF91CF911F910F91FF90EF90DF900895CE
:1008F000CF92DF92EF92FF920F931F93CF93DF93EC
:1009000000D000D01F92CDB7DEB78C017B015D8394
:100910004C83C22ED12C0FB6F8940F92F801928D11
:10092000838D981718F0F2E0CF1211C04C2DB7014B
:10093000C8010E946703F8018189882321F0C8015A
:1009400041960E9445090F900FBE81E04DC08C81F9
:100950009D81892B21F40F900FBE80E045C0D110FE
:1009600006C0CE0101960E948D09DD24D3940F901C
:100970000FBE0E94C7070FB6F8940F92F801858D3D
:100980008F3F09F4158EF801868D8F3F09F4168E7E
:100990000F900FBEBE016C5F7F4FCE0101960E948B
:1009A000980981111BC0C8010E945903882381F056
:1009B0006C817D81C80108960E943309C8010E949C
:1009C000CA030E945B088111A6CF0E947801A3CFC1
:1009D000C8010E94CA030E945B089DCFC8010E9403
:1009E000CA030E945B0880E00F900F900F900F9059
:1009F0000F90DF91CF911F910F91FF90EF90DF90BB
:100A0000CF900895CF92DF92EF92FF920F931F93B2
:100A1000CF93DF9300D000D01F92CDB7DEB78C010B
:100A20006B015D834C83E12C0FB6F8940F92F801B3
:100A3000F28CFF2091F0B601C8010E94B003FA9435
:100A4000F801F28E8085882321F0C80108960E9463
:100A500045090F900FBE81E053C08C819D81892B89
:100A600021F40F900FBE80E04BC0E11006C0CE0114
:100A700001960E948D09EE24E3940F900FBE0E9410
:100A8000C7070FB6F8940F92F801858D8F3F09F4D0
:100A9000158EF801868D8F3F09F4168E0F900FBECC
:100AA000BE016C5F7F4FCE0101960E9498098111B3
:100AB0001BC0C8010E944C03882381F06C817D819A
:100AC000C80141960E943309C8010E94CA030E94CE
:100AD0005B088111A9CF0E947801A6CFC8010E94AE
:100AE000CA030E945B08A0CFC8010E94CA030E94EB
:100AF0005B08C8010E944C03882309F495CF80E06D
:100B00000F900F900F900F900F90DF91CF911F914A
:100B10000F91FF90EF90DF90CF900895E091CF0676
:100B2000F091D0068081811107C08FEF9FEF9093E5
:100B3000A6068093A5060895E091CF06F091D00611
:100B40000580F681E02D808191819093A6068093A7
:100B5000A5060895CF93DF93EC018F89988D0E94AD
:100B60000E03CE010E940E03DF91CF9108956F9284
:100B70007F928F929F92AF92BF92CF92DF92EF922D
:100B80000F931F93CF93DF93CDB7DEB74C01D50101
:100B900057968D919C915897215031093C01620ED6
:100BA000731E6115710589F416C0822F90E0FB0158
:100BB000E80FF91F3081D501A80FB91F59963C9352
:100BC0008081882329F02F5F01C020E0283068F35E
:100BD000F50110A203C0D50159961C92B3E0BE15D1
:100BE00020F40F2EF3E0EF2EF02DF501E68AC5017B
:100BF00002960E945700C5010C960E945700D5012D
:100C00001996BC92AE92189784E090E08E199109E3
:100C10001D969C938E931C975396BC92AE925297BE
:100C200084E0F501B196DF011D928A95E9F7F5019F
:100C300015A2A801B401C3010E94DD00D5018D9366
:100C40009C93C114D10419F0F601B182A082DF9106
:100C5000CF911F910F91EF90DF90CF90BF90AF9009
:100C60009F908F907F906F900895CF93C0E010C0B9
:100C70008C2F90E09C01220F331F220F331F220F75
:100C8000331F820F931F8D51994F0E944900CF5FF0
:100C9000C43070F38AED96E00E94490081ED96E041
:100CA0000E94490084EC96E00E9449008BEB96E09C
:100CB0000E94490081EB96E00E9449008AED96E08F
:100CC0009093D0068093CF0681ED96E09093CE0668
:100CD0008093CD06CF910895CF93DF93EC010FB6AB
:100CE000F8940F928091B0068F5F8093B006809148
:100CF000070790910807892B59F4D0930807C093F0
:100D000007078091B006813099F40E94350610C023
:100D10008091AC0681110CC0E0910707F0910807A3
:100D200096898E89891720F0D0930807C09307070A
:100D30008091A7068F5F8093A7062E898091AD06CC
:100D4000821710F42093AD0630E0BE016E5F7F4F36
:100D5000C901880F991F880F991F880F991F820F4B
:100D6000931F8D51994F0E945B000F900FBE809191
:100D7000AC06882321F08091070790910807DF9146
:100D8000CF910895CF93DF931CC00FB6F8940F92C4
:100D9000E091C006F091C106C681D781CE010296CE
:100DA0000E94AD008091B00681508093B006809182
:100DB000BA0681508093BA060F900FBECE010E94F2
:100DC000AA058091BA068111E0CFDF91CF910895F5
:100DD000FF920F931F93CF93DF93EC01F62E0091B8
:100DE000AE061091AF068091070790910807029612
:100DF0000E94AD00CF3F8FEFD80769F4FF2059F074
:100E000060910707709108076E5F7F4F81EB96E056
:100E10000E945B002FC0C00FD11FE0910707F09127
:100E20000807D383C283C017D10768F4609107070E
:100E3000709108078091CD069091CE066E5F7F4F2E
:100E40000E947C0017C0609107077091080780918D
:100E5000CF069091D0066E5F7F4F0E947C008091FC
:100E6000A5069091A606C817D90720F4D093A60628
:100E7000C093A506DF91CF911F910F91FF90089528
:100E80000E94C2060E9478010E945E0AF9CF2F924A
:100E90003F924F925F926F927F928F929F92AF920A
:100EA000BF92CF92DF92EF92FF920F931F93CF9357
:100EB000DF933C011B015A012901CA010E9468020B
:100EC0006C01892B71F086E290E00E946802EC01CF
:100ED000892B19F0D88ECF8A06C0C6010E940E0356
:100EE00002C0C0E0D0E0209791F0950140E050E0D2
:100EF000812C912C5E016701E02E8201B101C301BA
:100F00000E94B705CE010E946C0681E001C08FEF00
:100F1000DF91CF911F910F91FF90EF90DF90CF90D5
:100F2000BF90AF909F908F907F906F905F904F9009
:100F30003F902F900895EF92FF920F930F2EF3EAB8
:100F4000EF2EF6E0FF2EF02D00E020E030E045E54A
:100F500050E061E670E080E497E00E94470781304E
:100F600081F4F8948FEF9FEF9093A6068093A506E7
:100F700081E08093AC061092AF061092AE060E94FC
:100F80004901809160000F91FF90EF90089580914A
:100F9000A2068F5F8093A2060895EF92FF920F93AF
:100FA0001F93CF93DF938091A206811173C0E090CD
:100FB000AE06F090AF068FEFE81AF80AF092AF068F
:100FC000E092AE06E114F104B9F48091CF0690915D
:100FD000D0062091CD063091CE063093D0062093D6
:100FE000CF069093CE068093CD068091A8068F5FA2
:100FF0008093A8060E948E058091A5069091A60672
:10100000E816F90608F44FC0E091CF06F091D0063B
:101010008081811107C08FEF9FEF9093A606809388
:10102000A50641C0E091CF06F091D0060580F6817B
:10103000E02DC681D7818A819B81E816F90628F4C4
:101040009093A6068093A5062EC08E010E5F1F4FBB
:10105000C8010E94AD008C899D89892B21F0CE01A9
:101060000C960E94AD008E899091AD06981710F4F1
:101070008093AD0690E09C01220F331F220F331F97
:10108000220F331F820F931FB8018D51994F0E9479
:101090005B00BACF8091AA069091AB06019690931F
:1010A000AB068093AA0680E0DF91CF911F910F914C
:1010B000FF90EF9008950F931F93CF93DF930FB698
:1010C000F8940F928091A20681508093A20680919D
:1010D000A206811156C08091B006811133C051C063
:1010E000E091C906F091CA06C681D781CE010C965F
:1010F0000E94AD008E010E5F1F4FC8010E94AD001F
:101100008E899091AD06981710F48093AD0690E00B
:101110009C01220F331F220F331F220F331F820F18
:10112000931FB8018D51994F0E945B009E89E091F9
:101130000707F09108078689981730F081E08093BF
:10114000A90602C0C0E0D0E08091C4068111C8CFDA
:10115000CD2B11F00E948E05C091AA06D091AB064E
:10116000209769F00E94CD07882319F081E08093D1
:10117000A9062197B9F71092AB061092AA068091A2
:10118000A9060F900FBE80E0DF91CF911F910F91C4
:101190000895CF93DF93EC01892B49F00E94C70794
:1011A00060E0CE010E94E8060E945B0801C080E07A
:1011B000811102C00E947801DF91CF910895809142
:1011C000A206882321F081E08093A9060895109259
:1011D000A9062091AD0601C02150822F90E0FC01AC
:1011E000EE0FFF1FEE0FFF1FEE0FFF1FE80FF91F9F
:1011F000ED51F94F3081332379F3AC01440F551F82
:10120000440F551F440F551F480F591FDF01018020
:10121000F281E02D0280F381E02D1296FC93EE9393
:1012200011974A51594FE417F50729F44281538128
:10123000FD0152834183FC01EE0FFF1FEE0FFF1FE4
:10124000EE0FFF1F8E0F9F1FFC01ED51F94F018024
:10125000F281E02D8681978190930807809307079C
:101260002093AD060895CF93DF93EB0160910707BC
:1012700070910807645F7F4F0E947C0061E0CE019F
:101280000E94E806DF91CF9108950F931F93CF93AB
:10129000DF93DC011596ED91FC911697C681D781FD
:1012A0008E01045F1F4FC8010E94AD008091A2060D
:1012B00081111CC00A501109C8010E94AD008E891D
:1012C0009091AD06981710F48093AD0690E09C01C4
:1012D000220F331F220F331F220F331F820F931F42
:1012E000B8018D51994F0E945B0005C0B80184EC94
:1012F00096E00E945B009E89E0910707F091080745
:101300008689891720F481E08093A90601C080E0D6
:10131000DF91CF911F910F9108952091A806FC01B4
:1013200020832091AE063091AF0632832183089549
:101330001F93CF93DF930FB6F8940F92E091AE0610
:10134000F091AF06DC0111964D915C911297DF018F
:10135000A41BB50BEB01288139812F3FDFEF3D073F
:10136000F9F0EC011881C091A8061C1741F0E417B0
:10137000F50728F0FB011182108281E012C0A2174C
:10138000B30748F4FB012A1B3B0B318320830E94E7
:101390008D0980E006C0DB011D921C9281E001C036
:1013A00080E00F900FBEDF91CF911F91089581E0F3
:1013B0008093A906089588B3816088BB88B38D7F28
:1013C00088BB88B3846088BB88B38B7F88BB8FE180
:1013D0009EE40197F1F700C00000089588E98AB9FA
:1013E00086E880BD83E389B90895FC0104C05D9B54
:1013F000FECF8CB9319680818111F9CF0895CF93BA
:10140000DF9300D0CDB7DEB79A83898386E690E07C
:101410000E94F50920E040E050E0BE016F5F7F4F81
:1014200080910B0790910C070E94780484EF91E063
:101430000E94C908EBCFCF93DF9300D0CDB7DEB7C2
:1014400040E050E0BE016F5F7F4F80910B079091AD
:101450000C070E94020589819A810E94F50985E79F
:1014600090E00E94F50984EF91E00E94C908E8CF5E
:101470001F920F920FB60F9211242F933F934F9309
:101480005F936F937F938F939F93AF93BF93EF93EC
:10149000FF938CB18BBB0E94DB09FF91EF91BF9151
:1014A000AF919F918F917F916F915F914F913F91FC
:1014B0002F910F900FBE0F901F9018950895EF92E7
:1014C000FF920F930E94EE0940E062E085E00E94E7
:1014D000530490930C0780930B078AE890E00E94D6
:1014E000F50980910B0790910C07892BD1F0E12C25
:1014F000F12C01E020E930E044E650E066E970E0DC
:101500008FEF99E00E94470720E030E044E650E08A
:101510006CE970E08BE19AE00E9447070E949B070C
:1015200004C082EA90E00E94F50980E090E00F910B
:10153000FF90EF900895FB01DC0102C001900D9235
:0C15400041505040D8F70895F894FFCFB8
:10154C000349444C450073656E6420746F207175BB
:10155C006575650D00526563656976656420667214
:10156C006F6D2051756575650D0068656C6C6F004D
:10157C00546869730D005461736B31005461736B63
:10158C0032007175657565206973206E6F74206506
:06159C006D70747921005E
:00000001FF
