:020000020000FC
:1000000027C0C498BFB9779BFECF10E81EB90895EA
:100010000B2FB07F05D0B02FB295B07F01D00895DF
:10002000F0DFB160EEDFB460ECDFBB7FEADF0895A4
:100030000B2FB07F05D0B02FB295B07F01D00895BF
:10004000E0DFBE7FDEDFB460DCDFBB7FDADF089598
:1000500010EB17BB11E51DB9B2E0EADFB8E2E8DF4B
:10006000BFE8E6DFBCE0E4DFB6E0E2DFF2E0E0E0DC
:10007000B491B03031F0CCDFB8E1DADFE39505D0F0
:10008000F7CF03D0B1E0D4DFE3CF44E12EE134E693
:100090003A95F1F72A95D9F7D9F72A95C1F74A95F4
:0400A000A9F708951F
:10020000454152544820495320425554204F4E45B1
:0C02100020434F554E54525920000895D1
:00000001FF
