S012000054494D455220494E20432E7372656377
S11300000C942A000C9434000C9434000C943400A6
S11300100C9434000C9434000C9434000C9434008C
S11300200C9434000C9434000C9434000C9434007C
S11300300C9434000C9434000C9434000C9434006C
S11300400C9434000C9434000C9434000C9434005C
S11300500C94340011241FBECFE5D8E0DEBFCDBF21
S11300600E943C000C9445000C9400008AEB82BF73
S113007082E083BF88B708958FEF87BBC1E00E94F9
S1110080360088B38C2788BBFACFF894FFCFE4
S9030000FC
