:100000000C942A000C943F000C943F000C943F0089
:100010000C943F000C943F000C943F000C943F0064
:100020000C943F000C943F000C943F000C943F0054
:100030000C943F000C943F000C943F000C943F0044
:100040000C943F000C943F000C943F000C943F0034
:100050000C943F0011241FBECFE5D8E0DEBFCDBF1A
:1000600010E0A0E6B0E0ECE6F1E002C005900D92F1
:10007000AE36B107D9F70E9480000C94B4000C94FE
:10008000000088B38E7F88BB88B38D7F88BB88B320
:10009000846088BB88B38B7F88BB8FE19EE4019727
:1000A000F1F700C0000008958FEF87BB8ABB88E39B
:1000B0008BBB0E94410081E08BBB0E9441008CE021
:1000C0008BBB0E94410086E08BBB0E94410080E810
:1000D0008BBB0E94410008958BBB88B3816088BBB5
:1000E00088B38D7F88BB88B3846088BB88B38B7FDF
:1000F00088BB8FE19EE40197F1F700C000000895EE
:100100000F931F93CF93DF93CDB7DEB72D970FB625
:10011000F894DEBF0FBECDBF8DE0E0E6F0E0DE017B
:10012000119601900D928A95E1F70E94540000E02B
:1001300010E004C00E946C000F5F1F4FE1E0F0E090
:10014000EC0FFD1FE00FF11F80818111F3CF80E0E4
:1001500090E02D960FB6F894DEBF0FBECDBFDF91B5
:0C016000CF911F910F910895F894FFCFEC
:0E016C0048656C6C6F20576F726C6421000048
:00000001FF
