S01C000073657269616C2064617461207472616E736665722E7372656349
S11300000C942A000C9434000C9434000C943400A6
S11300100C9434000C9434000C9434000C9434008C
S11300200C9434000C9434000C9434000C9434007C
S11300300C9434000C9434000C9434000C9434006C
S11300400C9434000C9434000C9434000C9434005C
S11300500C94340011241FBECFE5D8E0DEBFCDBF21
S11300600E9436000C9442000C940000E199FECFEB
S11300701FBA8FEF8EBB84E48DBBE29AE19A80E0D5
S10B008090E00895F894FFCF0D
S9030000FC
