S01300006B657970616420696E20632E7372656319
S11300000C942A000C9447000C9447000C9447006D
S11300100C9447000C9447000C9447000C94470040
S11300200C9447000C9447000C9447000C94470030
S11300300C9447000C9447000C9447000C94470020
S11300400C9447000C9447000C9447000C94470010
S11300500C94470011241FBECFE5D8E0DEBFCDBF0E
S113006010E0A0E6B0E0E4ECF3E002C005900D92ED
S1130070A037B107D9F720E0A0E7B0E001C01D9296
S1130080AA37B207E1F70E94F0000C94E0010C9447
S11300900000C098C198C29AC2988FE19EE401976B
S11300A0F1F700C00000089588E382BB0E94490074
S11300B081E082BB0E9449008CE082BB0E9449001F
S11300C086E082BB0E94490080E882BB0E9449000E
S11300D00895C09AC198C29AC2988FE19EE401978C
S11300E0F1F700C000000895809170008F70809334
S11300F07800089580917800880F982F990F990FB0
S1130100890F8093780090917300890F8093790010
S1130110089580917200880F982F990F990F890F75
S11301208093720090917400890F809377000895F2
S11301309091790080917700890F809375000895DC
S11301408091790090917700891B809375000895C0
S11301508091790090917700899F802D112480935C
S11301607500089580917900609177000E94D40110
S1130170809375000895809170008F708093720051
S1130180809176008B3219F40E94980008958D3284
S113019019F40E94A00008958A3219F40E94A8005C
S11301A008950E94B2000895CF93909175008DEC4C
S11301B0989F812D1124869586958695382F330F27
S11301C0232F220F220F230F921B8063C92FC0639A
S11301D082BB0E946900C2BB0E946900CF9108954E
S11301E08FEF87BB81BB90EF94BB85BB0E9454000B
S11301F0D0E0CFEE10E00F2EFFEDEF2EF02D01E05A
S11302000F2EFFEBBF2EF02D6894FF24F1F80F2E74
S1130210FFE7CF2EF02D0F2EF3E0DF2EF02D85B368
S11302208F7085BB83B38F708F30C9F78FE19EE4E5
S11302300197F1F700C0000083B38F708F30B1F3E2
S11302408FE19EE40197F1F700C0000083B38F7043
S11302508F3061F3C5BB83B38F708F3079F4E5BA07
S113026083B38F708F3061F4B5BA83B38F708F30DE
S113027049F4C5BA83B38F70ED2D05C0E12F03C0D7
S1130280E02F01C0EF2D8E3059F4F0E0EE0FFF1F88
S1130290EE0FFF1FE05AFF4F80818093700024C04F
S11302A08D3059F4F0E0EE0FFF1FEE0FFF1FE05A00
S11302B0FF4F81818093700017C08B3059F4F0E0B8
S11302C0EE0FFF1FEE0FFF1FE05AFF4F8281809356
S11302D070000AC0F0E0EE0FFF1FEE0FFF1FE05AA0
S11302E0FF4F8381809370008091700082BB0E94D5
S11302F0690080917000833431F4109371000E947E
S11303005400D0E08CCF8D3319F40E94D40087CFF1
S1130310982F9D7F9D3221F096ED980F923028F40E
S113032000937100809376007ACF90ED980F9A3005
S113033008F4DF5FD13041F49091710091111EC037
S113034090E00E9474006BCFD23051F49091710010
S1130350911124C08F70809373000E947A005FCF44
S11303609EEF9D0F923050F490917100913031F4D2
S113037090E00E94BB00F092710051CF9DEF9D0F61
S1130380923008F04CCF90917100923009F047CF31
S11303908F70809374000E94890041CF9091710006
S11303A0913009F03CCFE4CF991B79E004C0991F48
S11303B0961708F0961B881F7A95C9F780950895BB
S10703C0F894FFCFDB
S11303C43738392F3435362A3132332D43303D2BE7
S9030000FC
