S00D000051756575652E7372656312
S11300000C942A000C9447000C9447000C9447006D
S11300100C9447000C9447000C9447000C94D101B5
S11300200C9447000C9447000C9447000C94470030
S11300300C9447000C94AE0A0C9447000C944700AF
S11300400C9447000C9447000C9447000C94470010
S11300500C94470011241FBECFE5D8E0DEBFCDBF0E
S113006011E0A0E6B0E0E4E5FCE102C005900D92E9
S1130070AE31B107D9F727E0AEE1B1E001C01D927E
S1130080A939B207E1F70E94E80A0C94280E0C94EF
S11300900000FC010396928381832FEF3FEF3483AA
S11300A02383968385839087878310820895FC0138
S11300B0118610860895CF93DF939C01FB01DC0128
S11300C01196CD91DC911297D383C2838C819D814B
S11300D0958384838C819D81DC0113967C936E933C
S11300E012977D836C8331872087F90180818F5F2C
S11300F08083DF91CF910895CF93DF93EB01488103
S113010059814F3F2FEF520721F4FC01A781B0859D
S11301100DC0DC01139601C0DF011296ED91FC9134
S113012013972081318142175307B0F71296ED914E
S1130130FC911397FB83EA83D583C483BD83AC838B
S11301401396DC93CE93129799878887FC012081BC
S11301502F5F2083DF91CF910895CF93DF93FC012C
S1130160A085B185C281D381848195819D838C834F
S1130170C481D581828193819B838A8311968D91D9
S11301809C911297E817F90731F4848195811296AE
S11301909C938E931197118610868C9181508C9329
S11301A08C91DF91CF9108951BBC8CE78ABD8BE0C5
S11301B08EBD89B7806189BF089531E1FC01308328
S11301C0319722E220833197A3E3A08331976083A0
S11301D03197708331971082319760E8608331974B
S11301E01082319762E06083319763E060833197D6
S11301F064E06083319765E06083319766E06083F3
S1130200319767E06083319768E06083319769E0F4
S11302106083319760E1608331973083319732E1B5
S11302203083319733E13083319734E13083319730
S113023035E13083319736E13083319737E13083CC
S1130240319738E13083319739E13083319730E2A7
S11302503083319731E2308331972083319723E221
S113026020833197408331975083319726E220834E
S1130270319727E22083319728E22083319729E2BE
S11302802083319720E32083319721E320838697CD
S113029008950E94D400A0916F07B0917007CD918A
S11302A0CDBFDD91DEBFFF91EF91DF91CF91BF9183
S11302B0AF919F918F917F916F915F914F913F91FA
S11302C02F911F910F91FF90EF90DF90CF90BF90EF
S11302D0AF909F908F907F906F905F904F903F90E2
S11302E02F901F900F900FBE0F90089581E00895F6
S11302F00F920FB6F8940F921F9211242F923F92EF
S11303004F925F926F927F928F929F92AF92BF9221
S1130310CF92DF92EF92FF920F931F932F933F930D
S11303204F935F936F937F938F939F93AF93BF93F9
S1130330CF93DF93EF93FF93A0916F07B091700772
S11303400DB60D920EB60D920E94E708A0916F07AC
S1130350B0917007CD91CDBFDD91DEBFFF91EF91DC
S1130360DF91CF91BF91AF919F918F917F916F91C9
S11303705F914F913F912F911F910F91FF90EF90BB
S1130380DF90CF90BF90AF909F908F907F906F90B1
S11303905F904F903F902F901F900F900FBE0F9043
S11303A008951F920F920FB60F9211242F933F932B
S11303B04F935F936F937F938F939F93AF93BF9369
S11303C0EF93FF930E94D507FF91EF91BF91AF91F7
S11303D09F918F917F916F915F914F913F912F9159
S11303E00F900FBE0F901F901895EAE2F1E0AEE275
S11303F0B1E0B183A08313821282E6E0F7E0F093C8
S11304002901E0932801138212821182108288ED5F
S113041095E013969C938E931297ED93FC9390938F
S1130420250180932401909327018093260180E085
S113043090E890931F0180931E010895CF93DF935A
S1130440EC01AAE2B1E001C0DF01ED91FC9111974A
S1130450EC17FD07C8F312968D919C9113979D019B
S1130460280F391FC217D30749F42A813B81820F11
S1130470931F13969C938E931297ED018A819B810F
S11304809E01280F391FE217F307C1F420912801B8
S113049030912901E217F30771F022813381820F31
S11304A0931F9B838A83ED91FC91119780819181A5
S11304B09983888305C03983288302C0F983E8833C
S11304C0CA17DB0711F0CD93DC93DF91CF91089528
S11304D0EF92FF920F931F93CF93DF938C010E94AF
S11304E0CF078091280190912901892B11F40E9452
S11304F0F50180911E0190911F0180239123892B86
S113050009F077C00115110549F0C80104960817D0
S1130510190718F000E010E001C08C010115110565
S113052009F46AC0809126019091270180179107F0
S113053008F465C0C0912A01D0912B01EAE2F1E0F0
S113054002C0FE01EC018A819B818017910720F48F
S1130550888199810097A9F78091280190912901B8
S1130560C817D90709F44EC0E080F18084E0E80E92
S1130570F11C88819981918380832A813B81201B8E
S1130580310B2930310550F0CE01800F911FFC0151
S1130590338322831B830A830E941E022A813B81A8
S11305A08091260190912701821B930B9093270140
S11305B080932601409124015091250184179507C9
S11305C020F4909325018093240180911E01909141
S11305D01F01282B392B3B832A831982188280918F
S11305E0220190912301019690932301809322018B
S11305F00BC0E12CF12C08C0E12CF12C05C0E12C3E
S1130600F12C02C0E12CF12C0E946308C701DF9198
S1130610CF911F910F91FF90EF9008950F931F9327
S1130620CF93DF93009799F1EC0124974A815B8182
S113063020911E0130911F01BA0162237323672B9D
S113064031F168817981672B11F520953095242348
S113065035233B832A830E94CF078A819B81209183
S1130660260130912701820F931F909327018093D5
S11306702601CE010E941E02809120019091210149
S1130680019690932101809320010E946308DF91D9
S1130690CF911F910F9108950FB6F8940F92FC011A
S11306A0828D811102C081E001C080E00F900FBEF5
S11306B008950FB6F8940F92FC01228D838D2813B0
S11306C002C081E001C080E00F900FBE08950F9337
S11306D01F93CF93DF93EC01042F1A8D4C8D442389
S11306E0B9F1011116C050E08A819B810E94350B3B
S11306F02C8D8A819B81820F911D9B838A832C81FF
S11307003D818217930720F1888199819B838A8395
S11307101FC050E08E819F810E94350B8C8D90E02C
S11307209195819591092E813F81280F391F3F832F
S11307302E83488159812417350730F42C813D815B
S1130740820F931F9F838E83023011F41111115075
S11307501F5F1A8F80E0DF91CF911F910F91089551
S1130760FC01448D4423A9F050E026813781240FF5
S1130770351F37832683848195812817390720F014
S11307808081918197838683CB01668177810E94E2
S1130790350B08951F93CF93DF93EC010FB6F894B4
S11307A00F921E8D0BC08989882351F0CE0141968A
S11307B00E944D0981110E94DF09115011169CF30A
S11307C08FEF8E8F0F900FBE0FB6F8940F921D8D82
S11307D00BC08885882351F0CE0108960E944D09EC
S11307E081110E94DF09115011169CF38FEF8D8F38
S11307F00F900FBEDF91CF911F910895CF93DF9398
S1130800EC010FB6F8940F92E881F9818B8D2C8D51
S113081090E030E0829FA001839F500D929F500D85
S113082011244E0F5F1F5D834C831A8EFB83EA8372
S11308300197289FA001299F500D389F500D112426
S1130840CF01840F951F9F838E838FEF8D8F8E8FA3
S1130850611108C08885882369F0CE0108960E943A
S11308604D0908C0CE0108960E944900CE01419668
S11308700E9449000F900FBE81E0DF91CF9108954F
S11308800F931F93F801611103C01183008302C009
S113089051834083838F648F61E0CF010E94FE0304
S11308A01F910F910895DF92EF92FF920F931F9380
S11308B0CF93DF93F82EE62ED42E869FC001112409
S11308C04F960E946802EC01009749F08C012D2D8F
S11308D0AC01415E5F4F6E2D8F2D0E944004CE010E
S11308E0DF91CF911F910F91FF90EF90DF900895CA
S11308F0CF92DF92EF92FF920F931F93CF93DF93E8
S113090000D000D01F92CDB7DEB78C017B015D8390
S11309104C83C22ED12C0FB6F8940F92F801928D0D
S1130920838D981718F0F2E0CF1211C04C2DB70147
S1130930C8010E946703F8018189882321F0C80156
S113094041960E944D090F900FBE81E04DC08C81ED
S11309509D81892B21F40F900FBE80E045C0D110FA
S113096006C0CE0101960E949509DD24D3940F9010
S11309700FBE0E94CF070FB6F8940F92F801858D31
S11309808F3F09F4158EF801868D8F3F09F4168E7A
S11309900F900FBEBE016C5F7F4FCE0101960E9487
S11309A0A00981111BC0C8010E945903882381F04A
S11309B06C817D81C80108960E943B09C8010E9490
S11309C0CA030E9463088111A6CF0E947801A3CFB5
S11309D0C8010E94CA030E9463089DCFC8010E94F7
S11309E0CA030E94630880E00F900F900F900F904D
S11309F00F90DF91CF911F910F91FF90EF90DF90B7
S1130A00CF900895CF92DF92EF92FF920F931F93AE
S1130A10CF93DF9300D000D01F92CDB7DEB78C0107
S1130A206B015D834C83E12C0FB6F8940F92F801AF
S1130A30F28CFF2091F0B601C8010E94B003FA9431
S1130A40F801F28E8085882321F0C80108960E945F
S1130A504D090F900FBE81E053C08C819D81892B7D
S1130A6021F40F900FBE80E04BC0E11006C0CE0110
S1130A7001960E949509EE24E3940F900FBE0E9404
S1130A80CF070FB6F8940F92F801858D8F3F09F4C4
S1130A90158EF801868D8F3F09F4168E0F900FBEC8
S1130AA0BE016C5F7F4FCE0101960E94A0098111A7
S1130AB01BC0C8010E944C03882381F06C817D8196
S1130AC0C80141960E943B09C8010E94CA030E94C2
S1130AD063088111A9CF0E947801A6CFC8010E94A2
S1130AE0CA030E946308A0CFC8010E94CA030E94DF
S1130AF06308C8010E944C03882309F495CF80E061
S1130B000F900F900F900F900F90DF91CF911F9146
S1130B100F91FF90EF90DF90CF9008950FB6F89467
S1130B200F92FC01828D0F900FBE0895E09137075C
S1130B30F09138078081811107C08FEF9FEF909368
S1130B400E0780930D070895E0913707F091380759
S1130B500580F681E02D8081918190930E0780932A
S1130B600D070895CF93DF93EC018F89988D0E9430
S1130B700E03CE010E940E03DF91CF9108956F9270
S1130B807F928F929F92AF92BF92CF92DF92EF9219
S1130B900F931F93CF93DF93CDB7DEB74C01D501ED
S1130BA057968D919C915897215031093C01620EC2
S1130BB0731E6115710589F416C0822F90E0FB0144
S1130BC0E80FF91F3081D501A80FB91F59963C933E
S1130BD08081882329F02F5F01C020E0283068F34A
S1130BE0F50110A203C0D50159961C92B3E0BE15BD
S1130BF020F40F2EF3E0EF2EF02DF501E68AC50167
S1130C0002960E945700C5010C960E945700D50118
S1130C101996BC92AE92189784E090E08E199109CF
S1130C201D969C938E931C975396BC92AE925297AA
S1130C3084E0F501B196DF011D928A95E9F7F5018B
S1130C4015A2A801B401C3010E94DD00D5018D9352
S1130C509C93C114D10419F0F601B182A082DF91F2
S1130C60CF911F910F91EF90DF90CF90BF90AF90F5
S1130C709F908F907F906F900895CF93C0E010C0A5
S1130C808C2F90E09C01220F331F220F331F220F61
S1130C90331F820F931F855B984F0E944900CF5FDB
S1130CA0C43070F382E497E00E94490089E397E03E
S1130CB00E9449008CE297E00E94490083E297E099
S1130CC00E94490089E197E00E94490082E497E08C
S1130CD0909338078093370789E397E0909336071A
S1130CE080933507CF910895CF93DF93EC010FB62E
S1130CF0F8940F92809118078F5F80931807809162
S1130D006F0790917007892B59F4D0937007C093A3
S1130D106F0780911807813099F40E943D0610C036
S1130D208091140781110CC0E0916F07F091700756
S1130D3096898E89891720F0D0937007C0936F0726
S1130D4080910F078F5F80930F072E89809115077D
S1130D50821710F42093150730E0BE016E5F7F4FB9
S1130D60C901880F991F880F991F880F991F820F37
S1130D70931F855B984F0E945B000F900FBE80917C
S1130D801407882321F080916F0790917007DF91F9
S1130D90CF910895CF93DF931CC00FB6F8940F92B0
S1130DA0E0912807F0912907C681D781CE010296E8
S1130DB00E94AD008091180781508093180780919C
S1130DC022078150809322070F900FBECE010E940C
S1130DD0B205809122078111E0CFDF91CF91089570
S1130DE0FF920F931F93CF93DF93EC01F62E0091A4
S1130DF016071091170780916F079091700702965C
S1130E000E94AD00CF3F8FEFD80769F4FF2059F05F
S1130E1060916F07709170076E5F7F4F89E197E073
S1130E200E945B002FC0C00FD11FE0916F07F091AB
S1130E307007D383C283C017D10768F460916F072A
S1130E407091700780913507909136076E5F7F4FE0
S1130E500E947C0017C060916F07709170078091A9
S1130E603707909138076E5F7F4F0E947C00809116
S1130E700D0790910E07C817D90720F4D0930E07D9
S1130E80C0930D07DF91CF911F910F91FF900895AB
S1130E900E94CA060E9478010E94D40AF9CF2F92B8
S1130EA03F924F925F926F927F928F929F92AF92F6
S1130EB0BF92CF92DF92EF92FF920F931F93CF9343
S1130EC0DF933C011B015A012901CA010E946802F7
S1130ED06C01892B71F086E290E00E946802EC01BB
S1130EE0892B19F0D88ECF8A06C0C6010E940E0342
S1130EF002C0C0E0D0E0209791F0950140E050E0BE
S1130F00812C912C5E016701E02E8201B101C301A5
S1130F100E94BF05CE010E94740681E001C08FEFDC
S1130F20DF91CF911F910F91FF90EF90DF90CF90C1
S1130F30BF90AF909F908F907F906F905F904F90F5
S1130F403F902F900895EF92FF920F930F2EFBE0A6
S1130F50EF2EF7E0FF2EF02D00E020E030E045E535
S1130F6050E067E670E088E497E00E944F07813024
S1130F7081F4F8948FEF9FEF90930E0780930D0701
S1130F8081E08093140710921707109216070E94AD
S1130F904901809160000F91FF90EF900895809136
S1130FA00A078F5F80930A070895EF92FF920F93C9
S1130FB01F93CF93DF9380910A07811173C0E09050
S1130FC01607F09017078FEFE81AF80AF092170740
S1130FD0E0921607E114F104B9F480913707909177
S1130FE0380720913507309136073093380720931E
S1130FF037079093360780933507809110078F5FEA
S1131000809310070E94960580910D0790910E071A
S1131010E816F90608F44FC0E0913707F091380755
S11310208081811107C08FEF9FEF90930E0780930B
S11310300D0741C0E0913707F09138070580F6812C
S1131040E02DC681D7818A819B81E816F90628F4B0
S113105090930E0780930D072EC08E010E5F1F4FD5
S1131060C8010E94AD008C899D89892B21F0CE0195
S11310700C960E94AD008E8990911507981710F474
S11310808093150790E09C01220F331F220F331F1A
S1131090220F331F820F931FB801855B984F0E9464
S11310A05B00BACF80911207909113070196909339
S11310B013078093120780E0DF91CF911F910F9166
S11310C0FF90EF9008950F931F93CF93DF930FB684
S11310D0F8940F9280910A07815080930A078091B7
S11310E00A07811156C080911807811133C051C07D
S11310F0E0913107F0913207C681D781CE010C9679
S11311000E94AD008E010E5F1F4FC8010E94AD000A
S11311108E8990911507981710F48093150790E025
S11311209C01220F331F220F331F220F331F820F04
S1131130931FB801855B984F0E945B009E89E091E4
S11311406F07F09170078689981730F081E08093DB
S1131150110702C0C0E0D0E080912C078111C8CFF4
S1131160CD2B11F00E949605C0911207D091130760
S1131170209769F00E94D507882319F081E08093B5
S113118011072197B9F71092130710921207809153
S113119011070F900FBE80E0DF91CF911F910F9147
S11311A00895CF93DF93EC01892B49F00E94CF0778
S11311B060E0CE010E94F0060E94630801C080E056
S11311C0811102C00E947801DF91CF91089580912E
S11311D00A07882321F081E0809311070895109273
S11311E011072091150701C02150822F90E0FC01C6
S11311F0EE0FFF1FEE0FFF1FEE0FFF1FE80FF91F8B
S1131200E55BF84F3081332379F3AC01440F551F6C
S1131210440F551F440F551F480F591FDF0101800C
S1131220F281E02D0280F381E02D1296FC93EE937F
S11312301197425B584FE417F50729F44281538113
S1131240FD0152834183FC01EE0FFF1FEE0FFF1FD0
S1131250EE0FFF1F8E0F9F1FFC01E55BF84F01800F
S1131260F281E02D868197819093700780936F07B8
S1131270209315070895CF93DF93EB0160916F07D7
S113128070917007645F7F4F0E947C0061E0CE0123
S11312900E94F006DF91CF9108950F931F93CF938F
S11312A0DF93DC011596ED91FC911697C681D781E9
S11312B08E01045F1F4FC8010E94AD0080910A0790
S11312C081111CC00A501109C8010E94AD008E8909
S11312D090911507981710F48093150790E09C01DE
S11312E0220F331F220F331F220F331F820F931F2E
S11312F0B801855B984F0E945B0005C0B8018CE281
S113130097E00E945B009E89E0916F07F09170075F
S11313108689891720F481E08093110701C080E059
S1131320DF91CF911F910F91089520911007FC0137
S11313302083209116073091170732832183089563
S11313401F93CF93DF930FB6F8940F92E091160793
S1131350F0911707DC0111964D915C911297DF0112
S1131360A41BB50BEB01288139812F3FDFEF3D072B
S1131370F9F0EC011881C09110071C1741F0E41733
S1131380F50728F0FB011182108281E012C0A21738
S1131390B30748F4FB012A1B3B0B318320830E94D3
S11313A0950980E006C0DB011D921C9281E001C01A
S11313B080E00F900FBEDF91CF911F91089581E0DF
S11313C080931107089588B38E7F88BB88B38D7F7F
S11313D088BB88B3846088BB88B38B7F88BB8FE16C
S11313E09EE40197F1F700C0000008958FEF87BBDA
S11313F08ABB88E38BBB0E94E30981E08BBB0E941C
S1131400E3098CE08BBB0E94E30986E08BBB0E945E
S1131410E3098FE88BBB0E94E30987E08BBB0E9442
S1131420E309089588B3816088BB88B38D7F88BB46
S113143088B3846088BB88B38B7F88BB8FE19EE4CC
S11314400197F1F700C00000089588E98AB986E899
S113145080BD83E389B90895FC0104C05D9BFECF80
S11314608CB9319680818111F9CF0895CF93DF93A0
S113147000D01F92CDB7DEB780917707909178079F
S11314800E948E05853021F08CE690E00E942C0AA3
S113149040E050E0BE016F5F7F4F809177079091ED
S11314A078070E9402058130A9F58B81811119C04A
S11314B08A818F9389818F938CE790E09F938F9398
S11314C089E797E09F938F930E943E0B89E797E00B
S11314D00E942C0A0F900F900F900F900F900F9076
S11314E01DC08A818F9389818F938CE990E09F93AB
S11314F08F9389E797E09F938F930E943E0B89E730
S113150097E00E942C0A0F900F900F900F900F906D
S11315100F9004C08CEB90E00E942C0A84EF91E0C1
S11315200E94D108A9CFEC0120E042E250E0BE01C4
S113153080917707909178070E947804813029F48C
S113154087ED90E00E942C0A04C087EE90E00E9490
S11315502C0A84EF91E00E94D108E6CF1F920F92EB
S11315600FB60F9211242F933F934F935F936F9372
S11315707F938F939F93AF93BF93EF93FF938CB11C
S11315808BBB0E94120AFF91EF91BF91AF919F9183
S11315908F917F916F915F914F913F912F910F9018
S11315A00FBE0F901F90189580917107909172074C
S11315B0A0917307B09174070196A11DB11D80938A
S11315C0710790937207A0937307B09374070895FB
S11315D0EF92FF920F930E94250A0E94F60940E0C1
S11315E063E085E00E945304909378078093770723
S11315F0892B89F10F2EF7E9EF2EF7E0FF2EF02D5E
S113160002E021E630E044E650E062EF70E083E976
S11316109AE00E944F070F2EF5E7EF2EF7E0FF2E1A
S1131620F02D24E630E044E650E06AEF70E083E910
S11316309AE00E944F07E12CF12C01E020E030E019
S113164044E650E062E071E086E39AE00E944F07CE
S11316500E94A30704C08BE091E00E942C0A80E062
S113166090E00F91FF90EF900895FB01DC0102C020
S113167001900D9241505040D8F70895AEE0B0E08B
S1131680E4E4FBE00C94FF0D0D891E8986E08C8355
S11316901A8309838FEF9FE79E838D83AE01475E94
S11316A05F4F6F89788DCE0101960E94600BEF81A8
S11316B0F885E00FF11F10822E96E4E00C941B0EC7
S11316C0ABE0B0E0E6E6FBE00C94F10D6C017B01CD
S11316D08A01FC0117821682838181FFCCC1CE016D
S11316E001963C01F6019381F70193FD859193FFE7
S11316F081917F01882309F4BAC1853239F493FDBD
S1131700859193FF81917F01853229F4B60190E0A0
S11317100E94570DE7CF912C212C312CFFE1F315BA
S1131720D8F08B3279F038F4803279F08332A1F436
S1131730232D20611DC08D3261F0803369F4232D87
S1131740216016C0832D8260382EE32DE4603E2E86
S11317502AC0F32DF8601DC037FC2DC020ED280FE2
S11317602A3040F08E32B9F436FC81C1232D206436
S1131770322E19C036FE06C08AE0989E200D112430
S1131780922E11C0EAE02E9E200D1124222EF32D5C
S1131790F0623F2E08C08C3621F4832D8068382EE9
S11317A002C0883641F4F70193FD859193FF81913E
S11317B07F018111B3CF982F9F7D9554933028F4E6
S11317C00C5F1F4F9FE399830DC0833631F083373D
S11317D071F0833509F059C021C0F80180818983F3
S11317E00E5F1F4F88248394912C530113C028014A
S11317F0F2E04F0E511CF801A080B18036FE03C008
S1131800692D70E002C06FEF7FEFC5010E944C0D9F
S11318104C018201F32DFF773F2E16C0280122E0F0
S1131820420E511CF801A080B18036FE03C0692D20
S113183070E002C06FEF7FEFC5010E94410D4C01C3
S1131840F32DF0683F2E820133FC1BC0822D90E003
S113185088169906B0F4B60180E290E00E94570D14
S11318602A94F4CFF50137FC859137FE81915F010D
S1131870B60190E00E94570D21102A9421E0821AAB
S113188091088114910471F7E8C0843611F0893607
S113189041F5F80137FE07C060817181828193812F
S11318A00C5F1F4F08C060817181072E000C880BEC
S11318B0990B0E5F1F4FF32DFF763F2E97FF09C044
S11318C090958095709561957F4F8F4F9F4FF068ED
S11318D03F2E2AE030E0A3010E94930D882E861843
S11318E045C0853731F4232D2F7EB22E2AE030E017
S11318F025C0932D997FB92E8F36C1F018F4883501
S113190079F0B5C0803719F0883721F0B0C0E92FDD
S1131910E061BE2EB4FE0DC0FB2DF460BF2E09C0E5
S113192034FE0AC0292F2660B22E06C028E030E01B
S113193005C020E130E002C020E132E0F801B7FE4A
S113194007C060817181828193810C5F1F4F06C043
S11319506081718180E090E00E5F1F4FA3010E94BF
S1131960930D882E8618FB2DFF773F2E36FE0DC073
S1131970232D2E7FA22E891458F434FE0BC032FC82
S113198009C0832D8E7EA82E05C0B82CA32C03C0BD
S1131990B82C01C0B92CA4FE0FC0FE01E80DF11D46
S11319A08081803321F49A2D997EA92E09C0A2FE4C
S11319B006C0B394B39404C08A2D867809F0B39416
S11319C0A3FC11C0A0FE06C0B21488F4280C922C0B
S11319D09B180EC0B21460F4B60180E290E00E943D
S11319E0570DB394F7CFB21418F42B1802C0982CE7
S11319F0212CA4FE10C0B60180E390E00E94570D94
S1131A00A2FE17C0A1FC03C088E790E002C088E5ED
S1131A1090E0B6010CC08A2D867859F0A1FE02C070
S1131A208BE201C080E2A7FC8DE2B60190E00E9447
S1131A30570D891438F4B60180E390E00E94570DE5
S1131A409A94F7CF8A94F301E80DF11D8081B601D1
S1131A5090E00E94570D8110F5CF222009F442CE68
S1131A60B60180E290E00E94570D2A94F6CFF60169
S1131A708681978102C08FEF9FEF2B96E2E10C9451
S1131A800D0EFC010590615070400110D8F780954F
S1131A9090958E0F9F1F0895FC0161507040019036
S1131AA00110D8F7809590958E0F9F1F08950F937E
S1131AB01F93CF93DF93FB01238121FD03C08FEF9D
S1131AC09FEF2CC022FF16C04681578124813581A7
S1131AD04217530744F4A081B1819D012F5F3F4F0A
S1131AE0318320838C93268137812F5F3F4F378347
S1131AF0268314C08B01EC01FB010084F185E02DE9
S1131B000995892BE1F6D80116968D919C9117972A
S1131B10019617969C938E931697CE01DF91CF91E1
S1131B201F910F910895FA01AA27283051F120310D
S1131B3081F1E8946F936E7F6E5F7F4F8F4F9F4F5D
S1131B40AF4FB1E03ED0B4E03CD0670F781F891F9F
S1131B509A1FA11D680F791F8A1F911DA11D6A0F6D
S1131B60711D811D911DA11D20D009F468943F9120
S1131B702AE0269F11243019305D3193DEF6CF011F
S1131B800895462F4770405D4193B3E00FD0C9F7E5
S1131B90F6CF462F4F70405D4A3318F0495D31FD52
S1131BA04052419302D0A9F7EACFB4E0A6959795A5
S1131BB0879577956795BA95C9F70097610571057B
S1131BC008959B01AC010A2E0694579547953795C5
S1131BD02795BA95C9F7620F731F841F951FA01D1F
S1131BE008952F923F924F925F926F927F928F92BD
S1131BF09F92AF92BF92CF92DF92EF92FF920F9398
S1131C001F93CF93DF93CDB7DEB7CA1BDB0B0FB6A1
S1131C10F894DEBF0FBECDBF09942A88398848885E
S1131C205F846E847D848C849B84AA84B984C884F4
S1131C30DF80EE80FD800C811B81AA81B981CE0FEB
S1131C40D11D0FB6F894DEBF0FBECDBFED010895D0
S1071C50F894FFCF32
S1131C5403640000C8000149444C4500517565758E
S1131C64652069732066756C6C0D0D00526563659F
S1131C74697665642066726F6D2073656E6465723F
S1131C8431202D2D3E202025640D0D005265636501
S1131C94697665642066726F6D2073656E6465721F
S1131CA432202D2D3E202025640D0D006E6F7420EE
S1131CB472656365697665642066726F6D207175FB
S1131CC46575652E0D0D0053656E6420746F207167
S1131CD4756575650D0D006E6F742073656E640D06
S1131CE40D0073656E646572310073656E646572AC
S1131CF432005265636569766572006E6F7420679D
S1111D04657420616E797468696E670D000065
S9030000FC
