S00D00007461736B312E7372656333
S11300000C942A000C9434000C9434000C943400A6
S11300100C9434000C9434000C9434000C9434008C
S11300200C9434000C9434000C9434000C9434007C
S11300300C9434000C9434000C9434000C9434006C
S11300400C9434000C9434000C9434000C9434005C
S11300500C94340011241FBECFE5D8E0DEBFCDBF21
S11300600E9436000C9449000C9400008FEF81BB71
S113007012BA80E00BC082BB2FEF31EE94E0215026
S113008030409040E1F700C000008F5F863098F365
S1090090F0CFF894FFCF4D
S9030000FC
