S0140000636C63695F6E65775F7761792E737265631C
S11300000C942A000C9447000C9447000C9447006D
S11300100C9447000C9447000C9447000C94470040
S11300200C9447000C9447000C9447000C94470030
S11300300C9447000C9447000C9447000C94470020
S11300400C9447000C9447000C9447000C94470010
S11300500C94470011241FBECFE5D8E0DEBFCDBF0E
S113006010E0A0E6B0E0E8E7FFE002C005900D92E2
S1130070A637B107D9F720E0A6E7B0E001C01D928A
S1130080A839B207E1F70E94C6010C94BA070C9490
S11300900000C098C198C29AC2988FE19EE401976B
S11300A0F1F700C00000089588E382BB0E94490074
S11300B081E082BB0E9449008CE082BB0E9449001F
S11300C086E082BB0E94490080E882BB0E9449000E
S11300D00895C09AC198C29AC2988FEC97E001978C
S11300E0F1F700C000000895609176006F7070E031
S11300F080E090E00E94B3036093900070939100BD
S11301008093920090939300089520E030E040E2C1
S113011051E46091900070919100809192009091CF
S113012093000E9463049B01AC0160939000709360
S11301309100809392009093930060917C00709161
S11301407D0080917E0090917F000E94CE0260939A
S1130150940070939500809396009093970008956F
S113016020E030E040E251E4609178007091790041
S113017080917A0090917B000E9463049B01AC0102
S1130180609378007093790080937A0090937B0059
S11301906091800070918100809182009091830031
S11301A00E94CE0260938C0070938D0080938E0029
S11301B090938F00089520918C0030918D00409190
S11301C08E0050918F006091940070919500809101
S11301D09600909197000E94CE02609384007093E1
S11301E085008093860090938700089520918C0069
S11301F030918D0040918E0050918F006091940059
S11302007091950080919600909197000E94CD0284
S11302106093840070938500809386009093870098
S1130220089520918C0030918D0040918E00509162
S11302308F00609194007091950080919600909148
S113024097000E94630460938400709385008093F8
S1130250860090938700089520918C0030918D0042
S113026040918E0050918F006091940070919500A0
S113027080919600909197000E943F0360938400C0
S11302807093850080938600909387000895CF92A1
S1130290DF92EF92FF92609176006F7070E080E0E1
S11302A090E00E94B3036093780070937900809388
S11302B07A0090937B00C0908800D0908900E090F1
S11302C08A00F0908B0020E030E04CE252E4C70159
S11302D0B6010E943A03811103C00E94DB001CC0D6
S11302E020E030E044E352E4C701B6010E943A033F
S11302F0811103C00E94F6000FC020E030E048E204
S113030052E4C701B6010E943A03811103C00E945E
S1130310110102C00E942C01FF90EF90DF90CF905A
S11303200895CF93DF9300D000D0CDB7DEB780E03F
S113033090E0A0E0B0E48093840090938500A093C3
S11303408600B093870080E48F931F921F921F92C0
S113035080E790E09F938F93CE0101969F938F93B4
S11303600E94D004898182BB0E9469008A8182BB79
S11303700E9469000FB6F894DEBF0FBECDBF0F9088
S11303800F900F900F90DF91CF9108958FEF87BB5F
S113039081BB90EF94BB85BB0E945400D0E0CFEEAC
S11303A010E00F2EFFEDEF2EF02D01E00F2EFFEBEE
S11303B0BF2EF02D6894FF24F1F80F2EFFE7CF2E07
S11303C0F02D0F2EF3E0DF2EF02D85B38F7085BB5B
S11303D083B38F708F30C9F78FE39CE90197F1F7EE
S11303E000C0000083B38F708F30B1F38FE39CE9BA
S11303F00197F1F700C0000083B38F708F3061F371
S1130400C5BB83B38F708F3079F4E5BA83B38F7033
S11304108F3061F4B5BA83B38F708F3049F4C5BAA5
S113042083B38F70ED2D05C0E12F03C0E02F01C011
S1130430EF2D8E3059F4F0E0EE0FFF1FEE0FFF1F8B
S1130440E05AFF4F80818093760024C08D3059F4A8
S1130450F0E0EE0FFF1FEE0FFF1FE05AFF4F818108
S11304608093760017C08B3059F4F0E0EE0FFF1F35
S1130470EE0FFF1FE05AFF4F8281809376000AC07F
S1130480F0E0EE0FFF1FEE0FFF1FE05AFF4F8381D6
S1130490809376008091760082BB0E94690060910F
S11304A07600633431F4109377000E945400D0E056
S11304B08CCF6D3319F40E94910187CF862F8D7FE5
S11304C08D3221F086ED860F823080F40093770020
S11304D070E080E090E00E94B10360938800709324
S11304E0890080938A0090938B006FCF80ED860FF4
S11304F08A3008F4DF5FD13049F4809177008111AC
S11305002BC0862F90E00E9474005FCFD230A9F4F4
S11305108091770081113BC06F7070E080E090E0C3
S11305200E94B30360937C0070937D0080937E00EF
S113053090937F000E94850048CF8EEF8D0F82300C
S113054058F480917700813039F4862F90E00E942E
S11305504701F092770039CF8DEF8D0F823008F08C
S113056034CF80917700823009F02FCF6F7070E024
S113057080E090E00E94B303609380007093810058
S113058080938200909383000E94B0001ECF8091DC
S11305907700813009F019CFD8CF5058BB27AA274C
S11305A00E94E5020C9429040E941B0438F00E9466
S11305B0220420F039F49F3F19F426F40C94180413
S11305C00EF4E095E7FB0C941204E92F0E943A0420
S11305D058F3BA17620773078407950720F079F474
S11305E0A6F50C945C040EF4E0950B2EBA2FA02D06
S11305F00B01B90190010C01CA01A0011124FF27CC
S1130600591B99F0593F50F4503E68F11A16F040C6
S1130610A22F232F342F4427585FF3CF46953795C5
S11306202795A795F0405395C9F77EF41F16BA0B8A
S1130630620B730B840BBAF09150A1F0FF0FBB1F38
S1130640661F771F881FC2F70EC0BA0F621F731F81
S1130650841F48F4879577956795B795F7959E3FDE
S113066008F0B0CF9395880F08F09927EE0F97956F
S1130670879508950E94EE0308F481E008950E948E
S113068053030C9429040E94220458F00E941B0472
S113069040F029F45F3F29F00C94120451110C949A
S11306A05D040C9418040E943A0468F39923B1F38E
S11306B0552391F3951B550BBB27AA276217730784
S11306C0840738F09F5F5F4F220F331F441FAA1F18
S11306D0A9F335D00E2E3AF0E0E832D091505040D4
S11306E0E695001CCAF72BD0FE2F29D0660F771F82
S11306F0881FBB1F261737074807AB07B0E809F068
S1130700BB0B802DBF01FF2793585F4F3AF09E3FEC
S1130710510578F00C9412040C945D045F3FE4F3EB
S1130720983ED4F3869577956795B795F7959F5F2F
S1130730C9F7880F911D9695879597F90895E1E07B
S1130740660F771F881FBB1F621773078407BA07DA
S113075020F0621B730B840BBA0BEE1F88F7E09535
S11307600895E89409C097FB3EF4909580957095A0
S113077061957F4F8F4F9F4F9923A9F0F92F96E9E9
S1130780BB279395F695879577956795B795F1115E
S1130790F8CFFAF4BB0F11F460FF1BC06F5F7F4FFB
S11307A08F4F9F4F16C0882311F096E911C077230D
S11307B021F09EE8872F762F05C0662371F096E816
S11307C0862F70E060E02AF09A95660F771F881FE5
S11307D0DAF7880F9695879597F90895990F000889
S11307E0550FAA0BE0E8FEEF16161706E807F907FF
S11307F0C0F012161306E407F50798F0621B730B9A
S1130800840B950B39F40A2661F0232B242B252B1A
S113081021F408950A2609F4A140A6958FEF811DBD
S1130820811D089597F99F6780E870E060E008955E
S11308309FEF80EC089500240A94161617061806F4
S11308400906089500240A941216130614060506D0
S11308500895092E0394000C11F4882352F0BB0F61
S113086040F4BF2B11F460FF04C06F5F7F4F8F4FC4
S11308709F4F089557FD9058440F551F59F05F3FFF
S113088071F04795880F97FB991F61F09F3F79F0AE
S113089087950895121613061406551FF2CF469530
S11308A0F1DF08C0161617061806991FF1CF8695B2
S11308B07105610508940895E894BB276627772796
S11308C0CB0197F908950E9476040C9429040E94A0
S11308D01B0438F00E94220420F0952311F00C949C
S11308E012040C94180411240C945D040E943A041C
S11308F070F3959FC1F3950F50E0551F629FF0016F
S1130900729FBB27F00DB11D639FAA27F00DB11D87
S1130910AA1F649F6627B00DA11D661F829F222710
S1130920B00DA11D621F739FB00DA11D621F839F97
S1130930A00D611D221F749F3327A00D611D231F6D
S1130940849F600D211D822F762F6A2F11249F57BB
S113095050409AF0F1F088234AF0EE0FFF1FBB1FBE
S1130960661F771F881F91505040A9F79E3F51057D
S113097080F00C9412040C945D045F3FE4F3983E01
S1130980D4F3869577956795B795F795E7959F5F27
S1130990C1F7FE2B880F911D9695879597F90895B9
S11309A0AEE0B0E0E6EDF4E00C9491070D891E8909
S11309B086E08C831A8309838FEF9FE79E838D8360
S11309C0AE01475E5F4F6F89788DCE0101960E941C
S11309D0F204EF81F885E00FF11F10822E96E4E017
S11309E00C94AD07ABE0B0E0E8EFF4E00C948307BF
S11309F06C017B018A01FC0117821682838181FFCD
S1130A00CCC1CE0101963C01F6019381F70193FD1F
S1130A10859193FF81917F01882309F4BAC18532BE
S1130A2039F493FD859193FF81917F01853229F4F7
S1130A30B60190E00E94E906E7CF912C212C312CDD
S1130A40FFE1F315D8F08B3279F038F4803279F085
S1130A508332A1F4232D20611DC08D3261F08033D7
S1130A6069F4232D216016C0832D8260382EE32D76
S1130A70E4603E2E2AC0F32DF8601DC037FC2DC063
S1130A8020ED280F2A3040F08E32B9F436FC81C1B3
S1130A90232D2064322E19C036FE06C08AE0989EAB
S1130AA0200D1124922E11C0EAE02E9E200D112457
S1130AB0222EF32DF0623F2E08C08C3621F4832DB4
S1130AC08068382E02C0883641F4F70193FD859181
S1130AD093FF81917F018111B3CF982F9F7D95540E
S1130AE0933028F40C5F1F4F9FE399830DC0833626
S1130AF031F0833771F0833509F059C021C0F80112
S1130B00808189830E5F1F4F88248394912C530125
S1130B1013C02801F2E04F0E511CF801A080B180EF
S1130B2036FE03C0692D70E002C06FEF7FEFC50190
S1130B300E94DE064C018201F32DFF773F2E16C082
S1130B40280122E0420E511CF801A080B18036FE3B
S1130B5003C0692D70E002C06FEF7FEFC5010E94F2
S1130B60D3064C01F32DF0683F2E820133FC1BC0E9
S1130B70822D90E088169906B0F4B60180E290E0E8
S1130B800E94E9062A94F4CFF50137FC859137FEDB
S1130B9081915F01B60190E00E94E90621102A9438
S1130BA021E0821A91088114910471F7E8C0843617
S1130BB011F0893641F5F80137FE07C06081718173
S1130BC0828193810C5F1F4F08C060817181072E61
S1130BD0000C880B990B0E5F1F4FF32DFF763F2EF1
S1130BE097FF09C090958095709561957F4F8F4FC1
S1130BF09F4FF0683F2E2AE030E0A3010E942507B2
S1130C00882E861845C0853731F4232D2F7EB22EC9
S1130C102AE030E025C0932D997FB92E8F36C1F09C
S1130C2018F4883579F0B5C0803719F0883721F089
S1130C30B0C0E92FE061BE2EB4FE0DC0FB2DF46000
S1130C40BF2E09C034FE0AC0292F2660B22E06C06A
S1130C5028E030E005C020E130E002C020E132E0CD
S1130C60F801B7FE07C060817181828193810C5FB6
S1130C701F4F06C06081718180E090E00E5F1F4FBE
S1130C80A3010E942507882E8618FB2DFF773F2E8F
S1130C9036FE0DC0232D2E7FA22E891458F434FE67
S1130CA00BC032FC09C0832D8E7EA82E05C0B82C43
S1130CB0A32C03C0B82C01C0B92CA4FE0FC0FE01A4
S1130CC0E80DF11D8081803321F49A2D997EA92E9F
S1130CD009C0A2FE06C0B394B39404C08A2D8678DA
S1130CE009F0B394A3FC11C0A0FE06C0B21488F4AA
S1130CF0280C922C9B180EC0B21460F4B60180E24A
S1130D0090E00E94E906B394F7CFB21418F42B18BC
S1130D1002C0982C212CA4FE10C0B60180E390E000
S1130D200E94E906A2FE17C0A1FC03C088E790E078
S1130D3002C088E590E0B6010CC08A2D867859F08F
S1130D40A1FE02C08BE201C080E2A7FC8DE2B601E5
S1130D5090E00E94E906891438F4B60180E390E03B
S1130D600E94E9069A94F7CF8A94F301E80DF11DE5
S1130D708081B60190E00E94E9068110F5CF22201F
S1130D8009F442CEB60180E290E00E94E9062A947A
S1130D90F6CFF6018681978102C08FEF9FEF2B96E5
S1130DA0E2E10C949F07FC01059061507040011032
S1130DB0D8F7809590958E0F9F1F0895FC01615080
S1130DC0704001900110D8F7809590958E0F9F1F69
S1130DD008950F931F93CF93DF93FB01238121FD8C
S1130DE003C08FEF9FEF2CC022FF16C046815781AE
S1130DF0248135814217530744F4A081B1819D01B8
S1130E002F5F3F4F318320838C93268137812F5F5F
S1130E103F4F3783268314C08B01EC01FB01008410
S1130E20F185E02D0995892BE1F6D80116968D916F
S1130E309C911797019617969C938E931697CE01C3
S1130E40DF91CF911F910F910895FA01AA272830BD
S1130E5051F1203181F1E8946F936E7F6E5F7F4F83
S1130E608F4F9F4FAF4FB1E03ED0B4E03CD0670FFF
S1130E70781F891F9A1FA11D680F791F8A1F911D52
S1130E80A11D6A0F711D811D911DA11D20D009F4A2
S1130E9068943F912AE0269F11243019305D3193E4
S1130EA0DEF6CF010895462F4770405D4193B3E0CD
S1130EB00FD0C9F7F6CF462F4F70405D4A3318F074
S1130EC0495D31FD4052419302D0A9F7EACFB4E025
S1130ED0A6959795879577956795BA95C9F70097DD
S1130EE06105710508959B01AC010A2E069457957E
S1130EF0479537952795BA95C9F7620F731F841FD5
S1130F00951FA01D08952F923F924F925F926F926A
S1130F107F928F929F92AF92BF92CF92DF92EF9285
S1130F20FF920F931F93CF93DF93CDB7DEB7CA1B06
S1130F30DB0B0FB6F894DEBF0FBECDBF09942A8831
S1130F40398848885F846E847D848C849B84AA84D9
S1130F50B984C884DF80EE80FD800C811B81AA8166
S1130F60B981CE0FD11D0FB6F894DEBF0FBECDBF31
S10B0F70ED010895F894FFCF90
S1130F783738392F3435362A3132332D43303D2B27
S1090F88252E3266000074
S9030000FC
